{
  "_format": "hh3-artifact-1",
  "contractName": "TaskEscrow",
  "sourceName": "contracts/TaskEscrow.sol",
  "abi": [
    {
      "anonymous": false,
      "inputs": [
        {
          "indexed": true,
          "internalType": "bytes32",
          "name": "taskId",
          "type": "bytes32"
        },
        {
          "indexed": true,
          "internalType": "bytes32",
          "name": "subtaskId",
          "type": "bytes32"
        },
        {
          "indexed": false,
          "internalType": "bytes32",
          "name": "proofHash",
          "type": "bytes32"
        }
      ],
      "name": "ProofSubmitted",
      "type": "event"
    },
    {
      "anonymous": false,
      "inputs": [
        {
          "indexed": true,
          "internalType": "bytes32",
          "name": "taskId",
          "type": "bytes32"
        },
        {
          "indexed": false,
          "internalType": "uint256",
          "name": "totalReleased",
          "type": "uint256"
        }
      ],
      "name": "TaskCompleted",
      "type": "event"
    },
    {
      "anonymous": false,
      "inputs": [
        {
          "indexed": true,
          "internalType": "bytes32",
          "name": "taskId",
          "type": "bytes32"
        },
        {
          "indexed": true,
          "internalType": "address",
          "name": "depositor",
          "type": "address"
        },
        {
          "indexed": false,
          "internalType": "uint256",
          "name": "amount",
          "type": "uint256"
        }
      ],
      "name": "TaskCreated",
      "type": "event"
    },
    {
      "anonymous": false,
      "inputs": [
        {
          "indexed": true,
          "internalType": "bytes32",
          "name": "taskId",
          "type": "bytes32"
        },
        {
          "indexed": false,
          "internalType": "address",
          "name": "depositor",
          "type": "address"
        },
        {
          "indexed": false,
          "internalType": "uint256",
          "name": "amount",
          "type": "uint256"
        }
      ],
      "name": "TaskRefunded",
      "type": "event"
    },
    {
      "anonymous": false,
      "inputs": [
        {
          "indexed": true,
          "internalType": "bytes32",
          "name": "taskId",
          "type": "bytes32"
        },
        {
          "indexed": true,
          "internalType": "bytes32",
          "name": "subtaskId",
          "type": "bytes32"
        },
        {
          "indexed": true,
          "internalType": "address",
          "name": "agent",
          "type": "address"
        },
        {
          "indexed": false,
          "internalType": "uint256",
          "name": "amount",
          "type": "uint256"
        }
      ],
      "name": "WorkApproved",
      "type": "event"
    },
    {
      "inputs": [
        {
          "internalType": "bytes32",
          "name": "taskId",
          "type": "bytes32"
        },
        {
          "internalType": "bytes32",
          "name": "subtaskId",
          "type": "bytes32"
        },
        {
          "internalType": "address payable",
          "name": "agent",
          "type": "address"
        },
        {
          "internalType": "uint256",
          "name": "amount",
          "type": "uint256"
        }
      ],
      "name": "approveWork",
      "outputs": [],
      "stateMutability": "nonpayable",
      "type": "function"
    },
    {
      "inputs": [
        {
          "internalType": "bytes32",
          "name": "taskId",
          "type": "bytes32"
        }
      ],
      "name": "createTask",
      "outputs": [],
      "stateMutability": "payable",
      "type": "function"
    },
    {
      "inputs": [
        {
          "internalType": "bytes32",
          "name": "taskId",
          "type": "bytes32"
        },
        {
          "internalType": "bytes32",
          "name": "subtaskId",
          "type": "bytes32"
        }
      ],
      "name": "getProof",
      "outputs": [
        {
          "internalType": "bytes32",
          "name": "proofHash",
          "type": "bytes32"
        },
        {
          "internalType": "bool",
          "name": "submitted",
          "type": "bool"
        },
        {
          "internalType": "bool",
          "name": "approved",
          "type": "bool"
        }
      ],
      "stateMutability": "view",
      "type": "function"
    },
    {
      "inputs": [
        {
          "internalType": "bytes32",
          "name": "taskId",
          "type": "bytes32"
        }
      ],
      "name": "getTask",
      "outputs": [
        {
          "internalType": "address",
          "name": "depositor",
          "type": "address"
        },
        {
          "internalType": "uint256",
          "name": "totalAmount",
          "type": "uint256"
        },
        {
          "internalType": "uint256",
          "name": "releasedAmount",
          "type": "uint256"
        },
        {
          "internalType": "bool",
          "name": "active",
          "type": "bool"
        },
        {
          "internalType": "uint256",
          "name": "createdAt",
          "type": "uint256"
        }
      ],
      "stateMutability": "view",
      "type": "function"
    },
    {
      "inputs": [
        {
          "internalType": "bytes32",
          "name": "",
          "type": "bytes32"
        },
        {
          "internalType": "bytes32",
          "name": "",
          "type": "bytes32"
        }
      ],
      "name": "proofs",
      "outputs": [
        {
          "internalType": "bytes32",
          "name": "proofHash",
          "type": "bytes32"
        },
        {
          "internalType": "bool",
          "name": "submitted",
          "type": "bool"
        },
        {
          "internalType": "bool",
          "name": "approved",
          "type": "bool"
        },
        {
          "internalType": "uint256",
          "name": "submittedAt",
          "type": "uint256"
        }
      ],
      "stateMutability": "view",
      "type": "function"
    },
    {
      "inputs": [
        {
          "internalType": "bytes32",
          "name": "taskId",
          "type": "bytes32"
        }
      ],
      "name": "refundRemaining",
      "outputs": [],
      "stateMutability": "nonpayable",
      "type": "function"
    },
    {
      "inputs": [
        {
          "internalType": "bytes32",
          "name": "taskId",
          "type": "bytes32"
        },
        {
          "internalType": "bytes32",
          "name": "subtaskId",
          "type": "bytes32"
        },
        {
          "internalType": "bytes32",
          "name": "proofHash",
          "type": "bytes32"
        }
      ],
      "name": "submitProof",
      "outputs": [],
      "stateMutability": "nonpayable",
      "type": "function"
    },
    {
      "inputs": [
        {
          "internalType": "bytes32",
          "name": "",
          "type": "bytes32"
        }
      ],
      "name": "tasks",
      "outputs": [
        {
          "internalType": "address payable",
          "name": "depositor",
          "type": "address"
        },
        {
          "internalType": "uint256",
          "name": "totalAmount",
          "type": "uint256"
        },
        {
          "internalType": "uint256",
          "name": "releasedAmount",
          "type": "uint256"
        },
        {
          "internalType": "bool",
          "name": "active",
          "type": "bool"
        },
        {
          "internalType": "uint256",
          "name": "createdAt",
          "type": "uint256"
        }
      ],
      "stateMutability": "view",
      "type": "function"
    },
    {
      "stateMutability": "payable",
      "type": "receive"
    }
  ],
  "bytecode": "0x6080604052348015600e575f5ffd5b50610b0c8061001c5f395ff3fe60806040526004361061007c575f3560e01c80638a16a35f1161004c5780638a16a35f146101ca578063b293e81c1461022f578063c39bf97614610242578063e579f50014610261575f5ffd5b8063046ac4e11461008757806315a29035146100a85780634ece5685146101375780637efeb8f014610156575f5ffd5b3661008357005b5f5ffd5b348015610092575f5ffd5b506100a66100a13660046109c6565b6102b6565b005b3480156100b3575f5ffd5b506100fe6100c2366004610a0d565b5f90815260208190526040902080546001820154600283015460038401546004909401546001600160a01b03909316949193909260ff90911691565b604080516001600160a01b03909616865260208601949094529284019190915215156060830152608082015260a0015b60405180910390f35b348015610142575f5ffd5b506100a6610151366004610a24565b610570565b348015610161575f5ffd5b506101a4610170366004610a4d565b600160208181525f9384526040808520909152918352912080549181015460029091015460ff808316926101009004169084565b60408051948552921515602085015290151591830191909152606082015260800161012e565b3480156101d5575f5ffd5b506102126101e4366004610a4d565b5f91825260016020818152604080852093855292905291208054910154909160ff8083169261010090041690565b60408051938452911515602084015215159082015260600161012e565b6100a661023d366004610a0d565b6106bc565b34801561024d575f5ffd5b506100a661025c366004610a0d565b610808565b34801561026c575f5ffd5b506100fe61027b366004610a0d565b5f60208190529081526040902080546001820154600283015460038401546004909401546001600160a01b03909316939192909160ff169085565b5f848152602081905260409020600381015460ff166102f05760405162461bcd60e51b81526004016102e790610a6d565b60405180910390fd5b80546001600160a01b031633146103395760405162461bcd60e51b815260206004820152600d60248201526c2737ba103232b837b9b4ba37b960991b60448201526064016102e7565b5f858152600160208181526040808420888552909152909120015460ff166103995760405162461bcd60e51b8152602060048201526013602482015272141c9bdbd9881b9bdd081cdd589b5a5d1d1959606a1b60448201526064016102e7565b5f8581526001602081815260408084208885529091529091200154610100900460ff16156103fc5760405162461bcd60e51b815260206004820152601060248201526f105b1c9958591e48185c1c1c9bdd995960821b60448201526064016102e7565b80600101548282600201546104119190610aaa565b11156104505760405162461bcd60e51b815260206004820152600e60248201526d4578636565647320657363726f7760901b60448201526064016102e7565b5f858152600160208181526040808420888552909152822001805461ff00191661010017905560028201805484929061048a908490610aaa565b90915550506040515f906001600160a01b0385169084908381818185875af1925050503d805f81146104d7576040519150601f19603f3d011682016040523d82523d5f602084013e6104dc565b606091505b50509050806105235760405162461bcd60e51b81526020600482015260136024820152721353d3881d1c985b9cd9995c8819985a5b1959606a1b60448201526064016102e7565b836001600160a01b031685877f1446dd5c8438d97a6acb361e1cc3ef141769f8c4dfcd9ca7ebc32c459bd5f7518660405161056091815260200190565b60405180910390a4505050505050565b5f8381526020819052604090206003015460ff166105a05760405162461bcd60e51b81526004016102e790610a6d565b5f838152600160208181526040808420868552909152909120015460ff161561060b5760405162461bcd60e51b815260206004820152601760248201527f50726f6f6620616c7265616479207375626d697474656400000000000000000060448201526064016102e7565b60408051608081018252828152600160208083018281525f84860181815242606087019081528a83528585528783208a8452909452908690209451855590519284018054915115156101000261ff00199415159490941661ffff1990921691909117929092179091555160029091015551829084907f32c9117442431c0bcfdbbef33bc9918d148ad082e0f38d70bbde857f01d225c8906106af9085815260200190565b60405180910390a3505050565b5f8181526020819052604090206003015460ff16156107135760405162461bcd60e51b81526020600482015260136024820152725461736b20616c72656164792065786973747360681b60448201526064016102e7565b5f34116107525760405162461bcd60e51b815260206004820152600d60248201526c26bab9ba1039b2b7321026a7a760991b60448201526064016102e7565b6040805160a081018252338082523460208084018281525f8587018181526001606088018181524260808a019081528b8552848752938a9020985189546001600160a01b0319166001600160a01b03909116178955935190880155516002870155905160038601805460ff19169115159190911790555160049094019390935592519283529183917f5fb74283f874d0f894d0de9c856a2a842137dc2c21c621e080065c7b797c0095910160405180910390a350565b5f818152602081905260409020600381015460ff166108395760405162461bcd60e51b81526004016102e790610a6d565b80546001600160a01b031633146108825760405162461bcd60e51b815260206004820152600d60248201526c2737ba103232b837b9b4ba37b960991b60448201526064016102e7565b5f816002015482600101546108979190610ac3565b60038301805460ff191690559050801561093c5781546040515f916001600160a01b03169083908381818185875af1925050503d805f81146108f4576040519150601f19603f3d011682016040523d82523d5f602084013e6108f9565b606091505b505090508061093a5760405162461bcd60e51b815260206004820152600d60248201526c1499599d5b990819985a5b1959609a1b60448201526064016102e7565b505b8154604080516001600160a01b0390921682526020820183905284917ff3a7ab0ccbad7f367b7892962016c155d1ce76a3e6fdd0420b5e749763acbda7910160405180910390a2827f425461b244c16ff50abad00f390b37ec670910e5c1f71d0c3f4cfd35c0cadc9b83600201546040516109b991815260200190565b60405180910390a2505050565b5f5f5f5f608085870312156109d9575f5ffd5b843593506020850135925060408501356001600160a01b03811681146109fd575f5ffd5b9396929550929360600135925050565b5f60208284031215610a1d575f5ffd5b5035919050565b5f5f5f60608486031215610a36575f5ffd5b505081359360208301359350604090920135919050565b5f5f60408385031215610a5e575f5ffd5b50508035926020909101359150565b6020808252600f908201526e5461736b206e6f742061637469766560881b604082015260600190565b634e487b7160e01b5f52601160045260245ffd5b80820180821115610abd57610abd610a96565b92915050565b81810381811115610abd57610abd610a9656fea2646970667358221220ab7495a6eb4a19aaf7f9808db0d5b243550ae8b3b89991970ad2ede4108acc2764736f6c634300081c0033",
  "linkReferences": {},
  "deployedLinkReferences": {},
  "immutableReferences": {},
  "inputSourceName": "project/contracts/TaskEscrow.sol",
  "buildInfoId": "solc-0_8_28-59508f347df3ab192a3b5b3d7dabf0ff774633c5"
}