{
  "_format": "hh3-artifact-1",
  "contractName": "ReputationContract",
  "sourceName": "contracts/ReputationContract.sol",
  "abi": [
    {
      "anonymous": false,
      "inputs": [
        {
          "indexed": true,
          "internalType": "bytes32",
          "name": "agentId",
          "type": "bytes32"
        },
        {
          "indexed": false,
          "internalType": "uint256",
          "name": "initialScore",
          "type": "uint256"
        }
      ],
      "name": "ReputationInitialized",
      "type": "event"
    },
    {
      "anonymous": false,
      "inputs": [
        {
          "indexed": true,
          "internalType": "bytes32",
          "name": "agentId",
          "type": "bytes32"
        },
        {
          "indexed": false,
          "internalType": "bool",
          "name": "success",
          "type": "bool"
        },
        {
          "indexed": false,
          "internalType": "uint256",
          "name": "newScore",
          "type": "uint256"
        },
        {
          "indexed": false,
          "internalType": "uint256",
          "name": "totalTasks",
          "type": "uint256"
        }
      ],
      "name": "ReputationUpdated",
      "type": "event"
    },
    {
      "inputs": [
        {
          "internalType": "bytes32",
          "name": "agentId",
          "type": "bytes32"
        }
      ],
      "name": "getReputation",
      "outputs": [
        {
          "internalType": "uint256",
          "name": "score",
          "type": "uint256"
        },
        {
          "internalType": "uint256",
          "name": "totalTasks",
          "type": "uint256"
        },
        {
          "internalType": "uint256",
          "name": "successCount",
          "type": "uint256"
        },
        {
          "internalType": "uint256",
          "name": "successRate",
          "type": "uint256"
        }
      ],
      "stateMutability": "view",
      "type": "function"
    },
    {
      "inputs": [
        {
          "internalType": "bytes32",
          "name": "agentId",
          "type": "bytes32"
        },
        {
          "internalType": "uint256",
          "name": "initialScore",
          "type": "uint256"
        }
      ],
      "name": "initializeReputation",
      "outputs": [],
      "stateMutability": "nonpayable",
      "type": "function"
    },
    {
      "inputs": [
        {
          "internalType": "bytes32",
          "name": "",
          "type": "bytes32"
        }
      ],
      "name": "reputations",
      "outputs": [
        {
          "internalType": "uint256",
          "name": "score",
          "type": "uint256"
        },
        {
          "internalType": "uint256",
          "name": "totalTasks",
          "type": "uint256"
        },
        {
          "internalType": "uint256",
          "name": "successCount",
          "type": "uint256"
        },
        {
          "internalType": "uint256",
          "name": "lastUpdated",
          "type": "uint256"
        }
      ],
      "stateMutability": "view",
      "type": "function"
    },
    {
      "inputs": [
        {
          "internalType": "bytes32",
          "name": "agentId",
          "type": "bytes32"
        },
        {
          "internalType": "bool",
          "name": "success",
          "type": "bool"
        }
      ],
      "name": "updateReputation",
      "outputs": [],
      "stateMutability": "nonpayable",
      "type": "function"
    }
  ],
  "bytecode": "0x6080604052348015600e575f5ffd5b506104328061001c5f395ff3fe608060405234801561000f575f5ffd5b506004361061004a575f3560e01c80634ba7197b1461004e57806369e28b02146100a6578063d14519d2146100bb578063f83b53ee146100ce575b5f5ffd5b61008261005c366004610330565b5f6020819052908152604090208054600182015460028301546003909301549192909184565b60408051948552602085019390935291830152606082015260800160405180910390f35b6100b96100b4366004610347565b6100e1565b005b6100826100c9366004610330565b6101f2565b6100b96100dc366004610379565b610253565b5f5f5f8481526020019081526020015f2090506001816001015f82825461010891906103ad565b9091555050811561012d576001816002015f82825461012791906103ad565b90915550505b80600101546001036101545781610145576064610149565b6101e05b61ffff16815561019d565b5f82610161576064610165565b6101f45b61ffff16905060646101788260146103c6565b83546101859060506103c6565b61018f91906103ad565b61019991906103dd565b8255505b42600382015580546001820154604080518515158152602081019390935282015283907fe17651c97616598deef438d2c5060db5e23dea7797a21c12d1caba45565e95a59060600160405180910390a2505050565b5f8181526020819052604081206001810154829182918291908290610217575f610236565b6001820154600283015461022c9060646103c6565b61023691906103dd565b825460018401546002909401549099939850965094509092505050565b5f82815260208190526040902060030154156102ab5760405162461bcd60e51b8152602060048201526013602482015272105b1c9958591e481a5b9a5d1a585b1a5e9959606a1b604482015260640160405180910390fd5b604080516080810182528281525f6020808301828152838501838152426060860190815288855292849052928590209351845551600184015590516002830155516003909101555182907fe47fb42fe6b435e57786b27bbaa8dcd3e49b23d7caf4f381af5958a19de33795906103249084815260200190565b60405180910390a25050565b5f60208284031215610340575f5ffd5b5035919050565b5f5f60408385031215610358575f5ffd5b823591506020830135801515811461036e575f5ffd5b809150509250929050565b5f5f6040838503121561038a575f5ffd5b50508035926020909101359150565b634e487b7160e01b5f52601160045260245ffd5b808201808211156103c0576103c0610399565b92915050565b80820281158282048414176103c0576103c0610399565b5f826103f757634e487b7160e01b5f52601260045260245ffd5b50049056fea26469706673582212202e2d133c68c8e1a658e9f1322fea2851a74efe283e59a7603731ae54b37d605064736f6c634300081c0033",
  "linkReferences": {},
  "deployedLinkReferences": {},
  "immutableReferences": {},
  "inputSourceName": "project/contracts/ReputationContract.sol",
  "buildInfoId": "solc-0_8_28-b95d1f82f1ecb5dd580401732f0169c4a0b46c86"
}