{"project/contracts/ReputationContract.sol":{"ReputationContract":{"abi":[{"anonymous":false,"inputs":[{"indexed":true,"internalType":"bytes32","name":"agentId","type":"bytes32"},{"indexed":false,"internalType":"uint256","name":"initialScore","type":"uint256"}],"name":"ReputationInitialized","type":"event"},{"anonymous":false,"inputs":[{"indexed":true,"internalType":"bytes32","name":"agentId","type":"bytes32"},{"indexed":false,"internalType":"bool","name":"success","type":"bool"},{"indexed":false,"internalType":"uint256","name":"newScore","type":"uint256"},{"indexed":false,"internalType":"uint256","name":"totalTasks","type":"uint256"}],"name":"ReputationUpdated","type":"event"},{"inputs":[{"internalType":"bytes32","name":"agentId","type":"bytes32"}],"name":"getReputation","outputs":[{"internalType":"uint256","name":"score","type":"uint256"},{"internalType":"uint256","name":"totalTasks","type":"uint256"},{"internalType":"uint256","name":"successCount","type":"uint256"},{"internalType":"uint256","name":"successRate","type":"uint256"}],"stateMutability":"view","type":"function"},{"inputs":[{"internalType":"bytes32","name":"agentId","type":"bytes32"},{"internalType":"uint256","name":"initialScore","type":"uint256"}],"name":"initializeReputation","outputs":[],"stateMutability":"nonpayable","type":"function"},{"inputs":[{"internalType":"bytes32","name":"","type":"bytes32"}],"name":"reputations","outputs":[{"internalType":"uint256","name":"score","type":"uint256"},{"internalType":"uint256","name":"totalTasks","type":"uint256"},{"internalType":"uint256","name":"successCount","type":"uint256"},{"internalType":"uint256","name":"lastUpdated","type":"uint256"}],"stateMutability":"view","type":"function"},{"inputs":[{"internalType":"bytes32","name":"agentId","type":"bytes32"},{"internalType":"bool","name":"success","type":"bool"}],"name":"updateReputation","outputs":[],"stateMutability":"nonpayable","type":"function"}],"evm":{"bytecode":{"linkReferences":{},"object":"6080604052348015600e575f5ffd5b506104328061001c5f395ff3fe608060405234801561000f575f5ffd5b506004361061004a575f3560e01c80634ba7197b1461004e57806369e28b02146100a6578063d14519d2146100bb578063f83b53ee146100ce575b5f5ffd5b61008261005c366004610330565b5f6020819052908152604090208054600182015460028301546003909301549192909184565b60408051948552602085019390935291830152606082015260800160405180910390f35b6100b96100b4366004610347565b6100e1565b005b6100826100c9366004610330565b6101f2565b6100b96100dc366004610379565b610253565b5f5f5f8481526020019081526020015f2090506001816001015f82825461010891906103ad565b9091555050811561012d576001816002015f82825461012791906103ad565b90915550505b80600101546001036101545781610145576064610149565b6101e05b61ffff16815561019d565b5f82610161576064610165565b6101f45b61ffff16905060646101788260146103c6565b83546101859060506103c6565b61018f91906103ad565b61019991906103dd565b8255505b42600382015580546001820154604080518515158152602081019390935282015283907fe17651c97616598deef438d2c5060db5e23dea7797a21c12d1caba45565e95a59060600160405180910390a2505050565b5f8181526020819052604081206001810154829182918291908290610217575f610236565b6001820154600283015461022c9060646103c6565b61023691906103dd565b825460018401546002909401549099939850965094509092505050565b5f82815260208190526040902060030154156102ab5760405162461bcd60e51b8152602060048201526013602482015272105b1c9958591e481a5b9a5d1a585b1a5e9959606a1b604482015260640160405180910390fd5b604080516080810182528281525f6020808301828152838501838152426060860190815288855292849052928590209351845551600184015590516002830155516003909101555182907fe47fb42fe6b435e57786b27bbaa8dcd3e49b23d7caf4f381af5958a19de33795906103249084815260200190565b60405180910390a25050565b5f60208284031215610340575f5ffd5b5035919050565b5f5f60408385031215610358575f5ffd5b823591506020830135801515811461036e575f5ffd5b809150509250929050565b5f5f6040838503121561038a575f5ffd5b50508035926020909101359150565b634e487b7160e01b5f52601160045260245ffd5b808201808211156103c0576103c0610399565b92915050565b80820281158282048414176103c0576103c0610399565b5f826103f757634e487b7160e01b5f52601260045260245ffd5b50049056fea26469706673582212202e2d133c68c8e1a658e9f1322fea2851a74efe283e59a7603731ae54b37d605064736f6c634300081c0033","opcodes":"PUSH1 0x80 PUSH1 0x40 MSTORE CALLVALUE DUP1 ISZERO PUSH1 0xE JUMPI PUSH0 PUSH0 REVERT JUMPDEST POP PUSH2 0x432 DUP1 PUSH2 0x1C PUSH0 CODECOPY PUSH0 RETURN INVALID PUSH1 0x80 PUSH1 0x40 MSTORE CALLVALUE DUP1 ISZERO PUSH2 0xF JUMPI PUSH0 PUSH0 REVERT JUMPDEST POP PUSH1 0x4 CALLDATASIZE LT PUSH2 0x4A JUMPI PUSH0 CALLDATALOAD PUSH1 0xE0 SHR DUP1 PUSH4 0x4BA7197B EQ PUSH2 0x4E JUMPI DUP1 PUSH4 0x69E28B02 EQ PUSH2 0xA6 JUMPI DUP1 PUSH4 0xD14519D2 EQ PUSH2 0xBB JUMPI DUP1 PUSH4 0xF83B53EE EQ PUSH2 0xCE JUMPI JUMPDEST PUSH0 PUSH0 REVERT JUMPDEST PUSH2 0x82 PUSH2 0x5C CALLDATASIZE PUSH1 0x4 PUSH2 0x330 JUMP JUMPDEST PUSH0 PUSH1 0x20 DUP2 SWAP1 MSTORE SWAP1 DUP2 MSTORE PUSH1 0x40 SWAP1 KECCAK256 DUP1 SLOAD PUSH1 0x1 DUP3 ADD SLOAD PUSH1 0x2 DUP4 ADD SLOAD PUSH1 0x3 SWAP1 SWAP4 ADD SLOAD SWAP2 SWAP3 SWAP1 SWAP2 DUP5 JUMP JUMPDEST PUSH1 0x40 DUP1 MLOAD SWAP5 DUP6 MSTORE PUSH1 0x20 DUP6 ADD SWAP4 SWAP1 SWAP4 MSTORE SWAP2 DUP4 ADD MSTORE PUSH1 0x60 DUP3 ADD MSTORE PUSH1 0x80 ADD PUSH1 0x40 MLOAD DUP1 SWAP2 SUB SWAP1 RETURN JUMPDEST PUSH2 0xB9 PUSH2 0xB4 CALLDATASIZE PUSH1 0x4 PUSH2 0x347 JUMP JUMPDEST PUSH2 0xE1 JUMP JUMPDEST STOP JUMPDEST PUSH2 0x82 PUSH2 0xC9 CALLDATASIZE PUSH1 0x4 PUSH2 0x330 JUMP JUMPDEST PUSH2 0x1F2 JUMP JUMPDEST PUSH2 0xB9 PUSH2 0xDC CALLDATASIZE PUSH1 0x4 PUSH2 0x379 JUMP JUMPDEST PUSH2 0x253 JUMP JUMPDEST PUSH0 PUSH0 PUSH0 DUP5 DUP2 MSTORE PUSH1 0x20 ADD SWAP1 DUP2 MSTORE PUSH1 0x20 ADD PUSH0 KECCAK256 SWAP1 POP PUSH1 0x1 DUP2 PUSH1 0x1 ADD PUSH0 DUP3 DUP3 SLOAD PUSH2 0x108 SWAP2 SWAP1 PUSH2 0x3AD JUMP JUMPDEST SWAP1 SWAP2 SSTORE POP POP DUP2 ISZERO PUSH2 0x12D JUMPI PUSH1 0x1 DUP2 PUSH1 0x2 ADD PUSH0 DUP3 DUP3 SLOAD PUSH2 0x127 SWAP2 SWAP1 PUSH2 0x3AD JUMP JUMPDEST SWAP1 SWAP2 SSTORE POP POP JUMPDEST DUP1 PUSH1 0x1 ADD SLOAD PUSH1 0x1 SUB PUSH2 0x154 JUMPI DUP2 PUSH2 0x145 JUMPI PUSH1 0x64 PUSH2 0x149 JUMP JUMPDEST PUSH2 0x1E0 JUMPDEST PUSH2 0xFFFF AND DUP2 SSTORE PUSH2 0x19D JUMP JUMPDEST PUSH0 DUP3 PUSH2 0x161 JUMPI PUSH1 0x64 PUSH2 0x165 JUMP JUMPDEST PUSH2 0x1F4 JUMPDEST PUSH2 0xFFFF AND SWAP1 POP PUSH1 0x64 PUSH2 0x178 DUP3 PUSH1 0x14 PUSH2 0x3C6 JUMP JUMPDEST DUP4 SLOAD PUSH2 0x185 SWAP1 PUSH1 0x50 PUSH2 0x3C6 JUMP JUMPDEST PUSH2 0x18F SWAP2 SWAP1 PUSH2 0x3AD JUMP JUMPDEST PUSH2 0x199 SWAP2 SWAP1 PUSH2 0x3DD JUMP JUMPDEST DUP3 SSTORE POP JUMPDEST TIMESTAMP PUSH1 0x3 DUP3 ADD SSTORE DUP1 SLOAD PUSH1 0x1 DUP3 ADD SLOAD PUSH1 0x40 DUP1 MLOAD DUP6 ISZERO ISZERO DUP2 MSTORE PUSH1 0x20 DUP2 ADD SWAP4 SWAP1 SWAP4 MSTORE DUP3 ADD MSTORE DUP4 SWAP1 PUSH32 0xE17651C97616598DEEF438D2C5060DB5E23DEA7797A21C12D1CABA45565E95A5 SWAP1 PUSH1 0x60 ADD PUSH1 0x40 MLOAD DUP1 SWAP2 SUB SWAP1 LOG2 POP POP POP JUMP JUMPDEST PUSH0 DUP2 DUP2 MSTORE PUSH1 0x20 DUP2 SWAP1 MSTORE PUSH1 0x40 DUP2 KECCAK256 PUSH1 0x1 DUP2 ADD SLOAD DUP3 SWAP2 DUP3 SWAP2 DUP3 SWAP2 SWAP1 DUP3 SWAP1 PUSH2 0x217 JUMPI PUSH0 PUSH2 0x236 JUMP JUMPDEST PUSH1 0x1 DUP3 ADD SLOAD PUSH1 0x2 DUP4 ADD SLOAD PUSH2 0x22C SWAP1 PUSH1 0x64 PUSH2 0x3C6 JUMP JUMPDEST PUSH2 0x236 SWAP2 SWAP1 PUSH2 0x3DD JUMP JUMPDEST DUP3 SLOAD PUSH1 0x1 DUP5 ADD SLOAD PUSH1 0x2 SWAP1 SWAP5 ADD SLOAD SWAP1 SWAP10 SWAP4 SWAP9 POP SWAP7 POP SWAP5 POP SWAP1 SWAP3 POP POP POP JUMP JUMPDEST PUSH0 DUP3 DUP2 MSTORE PUSH1 0x20 DUP2 SWAP1 MSTORE PUSH1 0x40 SWAP1 KECCAK256 PUSH1 0x3 ADD SLOAD ISZERO PUSH2 0x2AB JUMPI PUSH1 0x40 MLOAD PUSH3 0x461BCD PUSH1 0xE5 SHL DUP2 MSTORE PUSH1 0x20 PUSH1 0x4 DUP3 ADD MSTORE PUSH1 0x13 PUSH1 0x24 DUP3 ADD MSTORE PUSH19 0x105B1C9958591E481A5B9A5D1A585B1A5E9959 PUSH1 0x6A SHL PUSH1 0x44 DUP3 ADD MSTORE PUSH1 0x64 ADD PUSH1 0x40 MLOAD DUP1 SWAP2 SUB SWAP1 REVERT JUMPDEST PUSH1 0x40 DUP1 MLOAD PUSH1 0x80 DUP2 ADD DUP3 MSTORE DUP3 DUP2 MSTORE PUSH0 PUSH1 0x20 DUP1 DUP4 ADD DUP3 DUP2 MSTORE DUP4 DUP6 ADD DUP4 DUP2 MSTORE TIMESTAMP PUSH1 0x60 DUP7 ADD SWAP1 DUP2 MSTORE DUP9 DUP6 MSTORE SWAP3 DUP5 SWAP1 MSTORE SWAP3 DUP6 SWAP1 KECCAK256 SWAP4 MLOAD DUP5 SSTORE MLOAD PUSH1 0x1 DUP5 ADD SSTORE SWAP1 MLOAD PUSH1 0x2 DUP4 ADD SSTORE MLOAD PUSH1 0x3 SWAP1 SWAP2 ADD SSTORE MLOAD DUP3 SWAP1 PUSH32 0xE47FB42FE6B435E57786B27BBAA8DCD3E49B23D7CAF4F381AF5958A19DE33795 SWAP1 PUSH2 0x324 SWAP1 DUP5 DUP2 MSTORE PUSH1 0x20 ADD SWAP1 JUMP JUMPDEST PUSH1 0x40 MLOAD DUP1 SWAP2 SUB SWAP1 LOG2 POP POP JUMP JUMPDEST PUSH0 PUSH1 0x20 DUP3 DUP5 SUB SLT ISZERO PUSH2 0x340 JUMPI PUSH0 PUSH0 REVERT JUMPDEST POP CALLDATALOAD SWAP2 SWAP1 POP JUMP JUMPDEST PUSH0 PUSH0 PUSH1 0x40 DUP4 DUP6 SUB SLT ISZERO PUSH2 0x358 JUMPI PUSH0 PUSH0 REVERT JUMPDEST DUP3 CALLDATALOAD SWAP2 POP PUSH1 0x20 DUP4 ADD CALLDATALOAD DUP1 ISZERO ISZERO DUP2 EQ PUSH2 0x36E JUMPI PUSH0 PUSH0 REVERT JUMPDEST DUP1 SWAP2 POP POP SWAP3 POP SWAP3 SWAP1 POP JUMP JUMPDEST PUSH0 PUSH0 PUSH1 0x40 DUP4 DUP6 SUB SLT ISZERO PUSH2 0x38A JUMPI PUSH0 PUSH0 REVERT JUMPDEST POP POP DUP1 CALLDATALOAD SWAP3 PUSH1 0x20 SWAP1 SWAP2 ADD CALLDATALOAD SWAP2 POP JUMP JUMPDEST PUSH4 0x4E487B71 PUSH1 0xE0 SHL PUSH0 MSTORE PUSH1 0x11 PUSH1 0x4 MSTORE PUSH1 0x24 PUSH0 REVERT JUMPDEST DUP1 DUP3 ADD DUP1 DUP3 GT ISZERO PUSH2 0x3C0 JUMPI PUSH2 0x3C0 PUSH2 0x399 JUMP JUMPDEST SWAP3 SWAP2 POP POP JUMP JUMPDEST DUP1 DUP3 MUL DUP2 ISZERO DUP3 DUP3 DIV DUP5 EQ OR PUSH2 0x3C0 JUMPI PUSH2 0x3C0 PUSH2 0x399 JUMP JUMPDEST PUSH0 DUP3 PUSH2 0x3F7 JUMPI PUSH4 0x4E487B71 PUSH1 0xE0 SHL PUSH0 MSTORE PUSH1 0x12 PUSH1 0x4 MSTORE PUSH1 0x24 PUSH0 REVERT JUMPDEST POP DIV SWAP1 JUMP INVALID LOG2 PUSH5 0x6970667358 0x22 SLT KECCAK256 0x2E 0x2D SGT EXTCODECOPY PUSH9 0xC8E1A658E9F1322FEA 0x28 MLOAD 0xA7 0x4E INVALID 0x28 RETURNDATACOPY MSIZE 0xA7 PUSH1 0x37 BALANCE 0xAE SLOAD 0xB3 PUSH30 0x605064736F6C634300081C00330000000000000000000000000000000000 "},"methodIdentifiers":{"getReputation(bytes32)":"d14519d2","initializeReputation(bytes32,uint256)":"f83b53ee","reputations(bytes32)":"4ba7197b","updateReputation(bytes32,bool)":"69e28b02"}}}}}