{"project/contracts/AgentRegistry.sol":{"AgentRegistry":{"abi":[{"anonymous":false,"inputs":[{"indexed":true,"internalType":"bytes32","name":"agentId","type":"bytes32"}],"name":"AgentDeactivated","type":"event"},{"anonymous":false,"inputs":[{"indexed":true,"internalType":"bytes32","name":"agentId","type":"bytes32"},{"indexed":true,"internalType":"address","name":"owner","type":"address"},{"indexed":false,"internalType":"string[]","name":"skills","type":"string[]"},{"indexed":false,"internalType":"uint256","name":"costPerTask","type":"uint256"}],"name":"AgentRegistered","type":"event"},{"anonymous":false,"inputs":[{"indexed":true,"internalType":"bytes32","name":"agentId","type":"bytes32"},{"indexed":false,"internalType":"uint256","name":"newCost","type":"uint256"}],"name":"AgentUpdated","type":"event"},{"inputs":[{"internalType":"uint256","name":"","type":"uint256"}],"name":"agentIds","outputs":[{"internalType":"bytes32","name":"","type":"bytes32"}],"stateMutability":"view","type":"function"},{"inputs":[{"internalType":"bytes32","name":"","type":"bytes32"}],"name":"agents","outputs":[{"internalType":"address","name":"owner","type":"address"},{"internalType":"uint256","name":"costPerTask","type":"uint256"},{"internalType":"string","name":"metadata","type":"string"},{"internalType":"bool","name":"active","type":"bool"},{"internalType":"uint256","name":"registeredAt","type":"uint256"}],"stateMutability":"view","type":"function"},{"inputs":[{"internalType":"bytes32","name":"agentId","type":"bytes32"}],"name":"deactivateAgent","outputs":[],"stateMutability":"nonpayable","type":"function"},{"inputs":[{"internalType":"bytes32","name":"agentId","type":"bytes32"}],"name":"getAgent","outputs":[{"internalType":"address","name":"owner","type":"address"},{"internalType":"string[]","name":"skills","type":"string[]"},{"internalType":"uint256","name":"costPerTask","type":"uint256"},{"internalType":"string","name":"metadata","type":"string"},{"internalType":"bool","name":"active","type":"bool"},{"internalType":"uint256","name":"registeredAt","type":"uint256"}],"stateMutability":"view","type":"function"},{"inputs":[{"internalType":"string","name":"skill","type":"string"}],"name":"getAgentsBySkill","outputs":[{"internalType":"bytes32[]","name":"","type":"bytes32[]"}],"stateMutability":"view","type":"function"},{"inputs":[],"name":"getAllAgentIds","outputs":[{"internalType":"bytes32[]","name":"","type":"bytes32[]"}],"stateMutability":"view","type":"function"},{"inputs":[],"name":"getTotalAgents","outputs":[{"internalType":"uint256","name":"","type":"uint256"}],"stateMutability":"view","type":"function"},{"inputs":[{"internalType":"bytes32","name":"agentId","type":"bytes32"},{"internalType":"string[]","name":"skills","type":"string[]"},{"internalType":"uint256","name":"costPerTask","type":"uint256"},{"internalType":"string","name":"metadata","type":"string"}],"name":"registerAgent","outputs":[],"stateMutability":"nonpayable","type":"function"},{"inputs":[{"internalType":"string","name":"","type":"string"},{"internalType":"uint256","name":"","type":"uint256"}],"name":"skillToAgents","outputs":[{"internalType":"bytes32","name":"","type":"bytes32"}],"stateMutability":"view","type":"function"},{"inputs":[{"internalType":"bytes32","name":"agentId","type":"bytes32"},{"internalType":"uint256","name":"newCost","type":"uint256"}],"name":"updateCost","outputs":[],"stateMutability":"nonpayable","type":"function"}],"evm":{"bytecode":{"linkReferences":{},"object":"6080604052348015600e575f5ffd5b5061107d8061001c5f395ff3fe608060405234801561000f575f5ffd5b506004361061009b575f3560e01c8063904cd34e11610063578063904cd34e1461011b578063a2c1d0671461012e578063a6c2af0114610141578063cdbdc3f714610166578063d91b6b7d14610179575f5ffd5b80631136a5951461009f5780632e20ee18146100bd5780633731a16f146100e157806356e76058146100f357806359b5acf314610106575b5f5ffd5b6100a761018c565b6040516100b491906109ab565b60405180910390f35b6100d06100cb3660046109ed565b6101e2565b6040516100b4959493929190610a32565b6001545b6040519081526020016100b4565b6100e56101013660046109ed565b6102a4565b6101196101143660046109ed565b6102c3565b005b610119610129366004610a6c565b610364565b61011961013c366004610ad0565b610409565b61015461014f3660046109ed565b61068f565b6040516100b496959493929190610b81565b6100e5610174366004610cd3565b610840565b6100a7610187366004610d14565b61087c565b606060018054806020026020016040519081016040528092919081815260200182805480156101d857602002820191905f5260205f20905b8154815260200190600101908083116101c4575b5050505050905090565b5f602081905290815260409020805460028201546003830180546001600160a01b0390931693919261021390610d52565b80601f016020809104026020016040519081016040528092919081815260200182805461023f90610d52565b801561028a5780601f106102615761010080835404028352916020019161028a565b820191905f5260205f20905b81548152906001019060200180831161026d57829003601f168201915b505050506004830154600590930154919260ff1691905085565b600181815481106102b3575f80fd5b5f91825260209091200154905081565b5f8181526020819052604090205481906001600160a01b031633146103215760405162461bcd60e51b815260206004820152600f60248201526e2737ba1030b3b2b73a1037bbb732b960891b60448201526064015b60405180910390fd5b5f82815260208190526040808220600401805460ff191690555183917f83fa9a5555770ebb043d9ef83dd2d496875b8a91e0b595e5ce06520ba75187ad91a25050565b5f8281526020819052604090205482906001600160a01b031633146103bd5760405162461bcd60e51b815260206004820152600f60248201526e2737ba1030b3b2b73a1037bbb732b960891b6044820152606401610318565b5f8381526020818152604091829020600201849055905183815284917f7a8c7d2cea9391cb6922e32d2c81a85e5b2307519a0f23f37665800328e42253910160405180910390a2505050565b5f8681526020819052604090206004015460ff161561046a5760405162461bcd60e51b815260206004820152601860248201527f4167656e7420616c7265616479207265676973746572656400000000000000006044820152606401610318565b836104b75760405162461bcd60e51b815260206004820152601c60248201527f4d7573742068617665206174206c65617374206f6e6520736b696c6c000000006044820152606401610318565b6040805160c08101909152338152602081016104d38688610d8a565b815260200184815260200183838080601f0160208091040260200160405190810160405280939291908181526020018383808284375f920182905250938552505060016020808501829052426040958601528b845283815293909220845181546001600160a01b0319166001600160a01b039091161781558484015180519194610562948601935001906108ed565b5060408201516002820155606082015160038201906105819082610e5a565b50608082015160048201805460ff191691151591909117905560a0909101516005909101556001805480820182555f9182527fb10e2d527612073b26eecdfd717e6a320cf44b4afac2b0732d9fcbe2b7fa0cf6018790555b848110156106405760028686838181106105f5576105f5610f14565b90506020028101906106079190610f28565b604051610615929190610f6a565b908152604051602091819003820190208054600180820183555f9283529290912001889055016105d9565b50336001600160a01b0316867f7ba2a9b029aad65c4bb52da5355db9320ba41de9f1766fb900d72f0dd5ae152f87878760405161067f93929190610fa1565b60405180910390a3505050505050565b5f8181526020818152604080832080546002820154600483015460058401546001850180548751818a0281018a019098528088526060988a988a988a98899891976001600160a01b03909116969194600389019460ff90921693918791908b9084015b8282101561079a578382905f5260205f2001805461070f90610d52565b80601f016020809104026020016040519081016040528092919081815260200182805461073b90610d52565b80156107865780601f1061075d57610100808354040283529160200191610786565b820191905f5260205f20905b81548152906001019060200180831161076957829003601f168201915b5050505050815260200190600101906106f2565b5050505094508280546107ac90610d52565b80601f01602080910402602001604051908101604052809291908181526020018280546107d890610d52565b80156108235780601f106107fa57610100808354040283529160200191610823565b820191905f5260205f20905b81548152906001019060200180831161080657829003601f168201915b505050505092509650965096509650965096505091939550919395565b8151602081840181018051600282529282019185019190912091905280548290811061086a575f80fd5b905f5260205f20015f91509150505481565b606060028383604051610890929190610f6a565b90815260408051918290036020908101832080548083028501830190935282845291908301828280156108e057602002820191905f5260205f20905b8154815260200190600101908083116108cc575b5050505050905092915050565b828054828255905f5260205f20908101928215610931579160200282015b8281111561093157825182906109219082610e5a565b509160200191906001019061090b565b5061093d929150610941565b5090565b8082111561093d575f610954828261095d565b50600101610941565b50805461096990610d52565b5f825580601f10610978575050565b601f0160209004905f5260205f20908101906109949190610997565b50565b5b8082111561093d575f8155600101610998565b602080825282518282018190525f918401906040840190835b818110156109e25783518352602093840193909201916001016109c4565b509095945050505050565b5f602082840312156109fd575f5ffd5b5035919050565b5f81518084528060208401602086015e5f602082860101526020601f19601f83011685010191505092915050565b60018060a01b038616815284602082015260a060408201525f610a5860a0830186610a04565b931515606083015250608001529392505050565b5f5f60408385031215610a7d575f5ffd5b50508035926020909101359150565b5f5f83601f840112610a9c575f5ffd5b5081356001600160401b03811115610ab2575f5ffd5b602083019150836020828501011115610ac9575f5ffd5b9250929050565b5f5f5f5f5f5f60808789031215610ae5575f5ffd5b8635955060208701356001600160401b03811115610b01575f5ffd5b8701601f81018913610b11575f5ffd5b80356001600160401b03811115610b26575f5ffd5b8960208260051b8401011115610b3a575f5ffd5b602091909101955093506040870135925060608701356001600160401b03811115610b63575f5ffd5b610b6f89828a01610a8c565b979a9699509497509295939492505050565b5f60c0820160018060a01b038916835260c0602084015280885180835260e08501915060e08160051b860101925060208a015f5b82811015610be65760df19878603018452610bd1858351610a04565b94506020938401939190910190600101610bb5565b505050508660408401528281036060840152610c028187610a04565b915050610c13608083018515159052565b8260a0830152979650505050505050565b634e487b7160e01b5f52604160045260245ffd5b604051601f8201601f191681016001600160401b0381118282101715610c6057610c60610c24565b604052919050565b5f82601f830112610c77575f5ffd5b81356001600160401b03811115610c9057610c90610c24565b610ca3601f8201601f1916602001610c38565b818152846020838601011115610cb7575f5ffd5b816020850160208301375f918101602001919091529392505050565b5f5f60408385031215610ce4575f5ffd5b82356001600160401b03811115610cf9575f5ffd5b610d0585828601610c68565b95602094909401359450505050565b5f5f60208385031215610d25575f5ffd5b82356001600160401b03811115610d3a575f5ffd5b610d4685828601610a8c565b90969095509350505050565b600181811c90821680610d6657607f821691505b602082108103610d8457634e487b7160e01b5f52602260045260245ffd5b50919050565b5f6001600160401b03831115610da257610da2610c24565b8260051b610db260208201610c38565b84815290830190602081019036831115610dca575f5ffd5b845b83811015610e045780356001600160401b03811115610de9575f5ffd5b610df536828901610c68565b84525060209283019201610dcc565b5095945050505050565b601f821115610e5557805f5260205f20601f840160051c81016020851015610e335750805b601f840160051c820191505b81811015610e52575f8155600101610e3f565b50505b505050565b81516001600160401b03811115610e7357610e73610c24565b610e8781610e818454610d52565b84610e0e565b6020601f821160018114610eb9575f8315610ea25750848201515b5f19600385901b1c1916600184901b178455610e52565b5f84815260208120601f198516915b82811015610ee85787850151825560209485019460019092019101610ec8565b5084821015610f0557868401515f19600387901b60f8161c191681555b50505050600190811b01905550565b634e487b7160e01b5f52603260045260245ffd5b5f5f8335601e19843603018112610f3d575f5ffd5b8301803591506001600160401b03821115610f56575f5ffd5b602001915036819003821315610ac9575f5ffd5b818382375f9101908152919050565b81835281816020850137505f828201602090810191909152601f909101601f19169091010190565b604080825281018390525f6060600585901b830181019083018683601e1936839003015b8882101561103257868503605f190184528235818112610fe3575f5ffd5b8a016020810190356001600160401b03811115610ffe575f5ffd5b80360382131561100c575f5ffd5b611017878284610f79565b96505050602083019250602084019350600182019150610fc5565b5050505060209290920192909252939250505056fea26469706673582212202612196ce74f439ee16b48048e6c4532a91209d9ef20d21ab5094adafc46a6af64736f6c634300081c0033","opcodes":"PUSH1 0x80 PUSH1 0x40 MSTORE CALLVALUE DUP1 ISZERO PUSH1 0xE JUMPI PUSH0 PUSH0 REVERT JUMPDEST POP PUSH2 0x107D DUP1 PUSH2 0x1C PUSH0 CODECOPY PUSH0 RETURN INVALID PUSH1 0x80 PUSH1 0x40 MSTORE CALLVALUE DUP1 ISZERO PUSH2 0xF JUMPI PUSH0 PUSH0 REVERT JUMPDEST POP PUSH1 0x4 CALLDATASIZE LT PUSH2 0x9B JUMPI PUSH0 CALLDATALOAD PUSH1 0xE0 SHR DUP1 PUSH4 0x904CD34E GT PUSH2 0x63 JUMPI DUP1 PUSH4 0x904CD34E EQ PUSH2 0x11B JUMPI DUP1 PUSH4 0xA2C1D067 EQ PUSH2 0x12E JUMPI DUP1 PUSH4 0xA6C2AF01 EQ PUSH2 0x141 JUMPI DUP1 PUSH4 0xCDBDC3F7 EQ PUSH2 0x166 JUMPI DUP1 PUSH4 0xD91B6B7D EQ PUSH2 0x179 JUMPI PUSH0 PUSH0 REVERT JUMPDEST DUP1 PUSH4 0x1136A595 EQ PUSH2 0x9F JUMPI DUP1 PUSH4 0x2E20EE18 EQ PUSH2 0xBD JUMPI DUP1 PUSH4 0x3731A16F EQ PUSH2 0xE1 JUMPI DUP1 PUSH4 0x56E76058 EQ PUSH2 0xF3 JUMPI DUP1 PUSH4 0x59B5ACF3 EQ PUSH2 0x106 JUMPI JUMPDEST PUSH0 PUSH0 REVERT JUMPDEST PUSH2 0xA7 PUSH2 0x18C JUMP JUMPDEST PUSH1 0x40 MLOAD PUSH2 0xB4 SWAP2 SWAP1 PUSH2 0x9AB JUMP JUMPDEST PUSH1 0x40 MLOAD DUP1 SWAP2 SUB SWAP1 RETURN JUMPDEST PUSH2 0xD0 PUSH2 0xCB CALLDATASIZE PUSH1 0x4 PUSH2 0x9ED JUMP JUMPDEST PUSH2 0x1E2 JUMP JUMPDEST PUSH1 0x40 MLOAD PUSH2 0xB4 SWAP6 SWAP5 SWAP4 SWAP3 SWAP2 SWAP1 PUSH2 0xA32 JUMP JUMPDEST PUSH1 0x1 SLOAD JUMPDEST PUSH1 0x40 MLOAD SWAP1 DUP2 MSTORE PUSH1 0x20 ADD PUSH2 0xB4 JUMP JUMPDEST PUSH2 0xE5 PUSH2 0x101 CALLDATASIZE PUSH1 0x4 PUSH2 0x9ED JUMP JUMPDEST PUSH2 0x2A4 JUMP JUMPDEST PUSH2 0x119 PUSH2 0x114 CALLDATASIZE PUSH1 0x4 PUSH2 0x9ED JUMP JUMPDEST PUSH2 0x2C3 JUMP JUMPDEST STOP JUMPDEST PUSH2 0x119 PUSH2 0x129 CALLDATASIZE PUSH1 0x4 PUSH2 0xA6C JUMP JUMPDEST PUSH2 0x364 JUMP JUMPDEST PUSH2 0x119 PUSH2 0x13C CALLDATASIZE PUSH1 0x4 PUSH2 0xAD0 JUMP JUMPDEST PUSH2 0x409 JUMP JUMPDEST PUSH2 0x154 PUSH2 0x14F CALLDATASIZE PUSH1 0x4 PUSH2 0x9ED JUMP JUMPDEST PUSH2 0x68F JUMP JUMPDEST PUSH1 0x40 MLOAD PUSH2 0xB4 SWAP7 SWAP6 SWAP5 SWAP4 SWAP3 SWAP2 SWAP1 PUSH2 0xB81 JUMP JUMPDEST PUSH2 0xE5 PUSH2 0x174 CALLDATASIZE PUSH1 0x4 PUSH2 0xCD3 JUMP JUMPDEST PUSH2 0x840 JUMP JUMPDEST PUSH2 0xA7 PUSH2 0x187 CALLDATASIZE PUSH1 0x4 PUSH2 0xD14 JUMP JUMPDEST PUSH2 0x87C JUMP JUMPDEST PUSH1 0x60 PUSH1 0x1 DUP1 SLOAD DUP1 PUSH1 0x20 MUL PUSH1 0x20 ADD PUSH1 0x40 MLOAD SWAP1 DUP2 ADD PUSH1 0x40 MSTORE DUP1 SWAP3 SWAP2 SWAP1 DUP2 DUP2 MSTORE PUSH1 0x20 ADD DUP3 DUP1 SLOAD DUP1 ISZERO PUSH2 0x1D8 JUMPI PUSH1 0x20 MUL DUP3 ADD SWAP2 SWAP1 PUSH0 MSTORE PUSH1 0x20 PUSH0 KECCAK256 SWAP1 JUMPDEST DUP2 SLOAD DUP2 MSTORE PUSH1 0x20 ADD SWAP1 PUSH1 0x1 ADD SWAP1 DUP1 DUP4 GT PUSH2 0x1C4 JUMPI JUMPDEST POP POP POP POP POP SWAP1 POP SWAP1 JUMP JUMPDEST PUSH0 PUSH1 0x20 DUP2 SWAP1 MSTORE SWAP1 DUP2 MSTORE PUSH1 0x40 SWAP1 KECCAK256 DUP1 SLOAD PUSH1 0x2 DUP3 ADD SLOAD PUSH1 0x3 DUP4 ADD DUP1 SLOAD PUSH1 0x1 PUSH1 0x1 PUSH1 0xA0 SHL SUB SWAP1 SWAP4 AND SWAP4 SWAP2 SWAP3 PUSH2 0x213 SWAP1 PUSH2 0xD52 JUMP JUMPDEST DUP1 PUSH1 0x1F ADD PUSH1 0x20 DUP1 SWAP2 DIV MUL PUSH1 0x20 ADD PUSH1 0x40 MLOAD SWAP1 DUP2 ADD PUSH1 0x40 MSTORE DUP1 SWAP3 SWAP2 SWAP1 DUP2 DUP2 MSTORE PUSH1 0x20 ADD DUP3 DUP1 SLOAD PUSH2 0x23F SWAP1 PUSH2 0xD52 JUMP JUMPDEST DUP1 ISZERO PUSH2 0x28A JUMPI DUP1 PUSH1 0x1F LT PUSH2 0x261 JUMPI PUSH2 0x100 DUP1 DUP4 SLOAD DIV MUL DUP4 MSTORE SWAP2 PUSH1 0x20 ADD SWAP2 PUSH2 0x28A JUMP JUMPDEST DUP3 ADD SWAP2 SWAP1 PUSH0 MSTORE PUSH1 0x20 PUSH0 KECCAK256 SWAP1 JUMPDEST DUP2 SLOAD DUP2 MSTORE SWAP1 PUSH1 0x1 ADD SWAP1 PUSH1 0x20 ADD DUP1 DUP4 GT PUSH2 0x26D JUMPI DUP3 SWAP1 SUB PUSH1 0x1F AND DUP3 ADD SWAP2 JUMPDEST POP POP POP POP PUSH1 0x4 DUP4 ADD SLOAD PUSH1 0x5 SWAP1 SWAP4 ADD SLOAD SWAP2 SWAP3 PUSH1 0xFF AND SWAP2 SWAP1 POP DUP6 JUMP JUMPDEST PUSH1 0x1 DUP2 DUP2 SLOAD DUP2 LT PUSH2 0x2B3 JUMPI PUSH0 DUP1 REVERT JUMPDEST PUSH0 SWAP2 DUP3 MSTORE PUSH1 0x20 SWAP1 SWAP2 KECCAK256 ADD SLOAD SWAP1 POP DUP2 JUMP JUMPDEST PUSH0 DUP2 DUP2 MSTORE PUSH1 0x20 DUP2 SWAP1 MSTORE PUSH1 0x40 SWAP1 KECCAK256 SLOAD DUP2 SWAP1 PUSH1 0x1 PUSH1 0x1 PUSH1 0xA0 SHL SUB AND CALLER EQ PUSH2 0x321 JUMPI PUSH1 0x40 MLOAD PUSH3 0x461BCD PUSH1 0xE5 SHL DUP2 MSTORE PUSH1 0x20 PUSH1 0x4 DUP3 ADD MSTORE PUSH1 0xF PUSH1 0x24 DUP3 ADD MSTORE PUSH15 0x2737BA1030B3B2B73A1037BBB732B9 PUSH1 0x89 SHL PUSH1 0x44 DUP3 ADD MSTORE PUSH1 0x64 ADD JUMPDEST PUSH1 0x40 MLOAD DUP1 SWAP2 SUB SWAP1 REVERT JUMPDEST PUSH0 DUP3 DUP2 MSTORE PUSH1 0x20 DUP2 SWAP1 MSTORE PUSH1 0x40 DUP1 DUP3 KECCAK256 PUSH1 0x4 ADD DUP1 SLOAD PUSH1 0xFF NOT AND SWAP1 SSTORE MLOAD DUP4 SWAP2 PUSH32 0x83FA9A5555770EBB043D9EF83DD2D496875B8A91E0B595E5CE06520BA75187AD SWAP2 LOG2 POP POP JUMP JUMPDEST PUSH0 DUP3 DUP2 MSTORE PUSH1 0x20 DUP2 SWAP1 MSTORE PUSH1 0x40 SWAP1 KECCAK256 SLOAD DUP3 SWAP1 PUSH1 0x1 PUSH1 0x1 PUSH1 0xA0 SHL SUB AND CALLER EQ PUSH2 0x3BD JUMPI PUSH1 0x40 MLOAD PUSH3 0x461BCD PUSH1 0xE5 SHL DUP2 MSTORE PUSH1 0x20 PUSH1 0x4 DUP3 ADD MSTORE PUSH1 0xF PUSH1 0x24 DUP3 ADD MSTORE PUSH15 0x2737BA1030B3B2B73A1037BBB732B9 PUSH1 0x89 SHL PUSH1 0x44 DUP3 ADD MSTORE PUSH1 0x64 ADD PUSH2 0x318 JUMP JUMPDEST PUSH0 DUP4 DUP2 MSTORE PUSH1 0x20 DUP2 DUP2 MSTORE PUSH1 0x40 SWAP2 DUP3 SWAP1 KECCAK256 PUSH1 0x2 ADD DUP5 SWAP1 SSTORE SWAP1 MLOAD DUP4 DUP2 MSTORE DUP5 SWAP2 PUSH32 0x7A8C7D2CEA9391CB6922E32D2C81A85E5B2307519A0F23F37665800328E42253 SWAP2 ADD PUSH1 0x40 MLOAD DUP1 SWAP2 SUB SWAP1 LOG2 POP POP POP JUMP JUMPDEST PUSH0 DUP7 DUP2 MSTORE PUSH1 0x20 DUP2 SWAP1 MSTORE PUSH1 0x40 SWAP1 KECCAK256 PUSH1 0x4 ADD SLOAD PUSH1 0xFF AND ISZERO PUSH2 0x46A JUMPI PUSH1 0x40 MLOAD PUSH3 0x461BCD PUSH1 0xE5 SHL DUP2 MSTORE PUSH1 0x20 PUSH1 0x4 DUP3 ADD MSTORE PUSH1 0x18 PUSH1 0x24 DUP3 ADD MSTORE PUSH32 0x4167656E7420616C726561647920726567697374657265640000000000000000 PUSH1 0x44 DUP3 ADD MSTORE PUSH1 0x64 ADD PUSH2 0x318 JUMP JUMPDEST DUP4 PUSH2 0x4B7 JUMPI PUSH1 0x40 MLOAD PUSH3 0x461BCD PUSH1 0xE5 SHL DUP2 MSTORE PUSH1 0x20 PUSH1 0x4 DUP3 ADD MSTORE PUSH1 0x1C PUSH1 0x24 DUP3 ADD MSTORE PUSH32 0x4D7573742068617665206174206C65617374206F6E6520736B696C6C00000000 PUSH1 0x44 DUP3 ADD MSTORE PUSH1 0x64 ADD PUSH2 0x318 JUMP JUMPDEST PUSH1 0x40 DUP1 MLOAD PUSH1 0xC0 DUP2 ADD SWAP1 SWAP2 MSTORE CALLER DUP2 MSTORE PUSH1 0x20 DUP2 ADD PUSH2 0x4D3 DUP7 DUP9 PUSH2 0xD8A JUMP JUMPDEST DUP2 MSTORE PUSH1 0x20 ADD DUP5 DUP2 MSTORE PUSH1 0x20 ADD DUP4 DUP4 DUP1 DUP1 PUSH1 0x1F ADD PUSH1 0x20 DUP1 SWAP2 DIV MUL PUSH1 0x20 ADD PUSH1 0x40 MLOAD SWAP1 DUP2 ADD PUSH1 0x40 MSTORE DUP1 SWAP4 SWAP3 SWAP2 SWAP1 DUP2 DUP2 MSTORE PUSH1 0x20 ADD DUP4 DUP4 DUP1 DUP3 DUP5 CALLDATACOPY PUSH0 SWAP3 ADD DUP3 SWAP1 MSTORE POP SWAP4 DUP6 MSTORE POP POP PUSH1 0x1 PUSH1 0x20 DUP1 DUP6 ADD DUP3 SWAP1 MSTORE TIMESTAMP PUSH1 0x40 SWAP6 DUP7 ADD MSTORE DUP12 DUP5 MSTORE DUP4 DUP2 MSTORE SWAP4 SWAP1 SWAP3 KECCAK256 DUP5 MLOAD DUP2 SLOAD PUSH1 0x1 PUSH1 0x1 PUSH1 0xA0 SHL SUB NOT AND PUSH1 0x1 PUSH1 0x1 PUSH1 0xA0 SHL SUB SWAP1 SWAP2 AND OR DUP2 SSTORE DUP5 DUP5 ADD MLOAD DUP1 MLOAD SWAP2 SWAP5 PUSH2 0x562 SWAP5 DUP7 ADD SWAP4 POP ADD SWAP1 PUSH2 0x8ED JUMP JUMPDEST POP PUSH1 0x40 DUP3 ADD MLOAD PUSH1 0x2 DUP3 ADD SSTORE PUSH1 0x60 DUP3 ADD MLOAD PUSH1 0x3 DUP3 ADD SWAP1 PUSH2 0x581 SWAP1 DUP3 PUSH2 0xE5A JUMP JUMPDEST POP PUSH1 0x80 DUP3 ADD MLOAD PUSH1 0x4 DUP3 ADD DUP1 SLOAD PUSH1 0xFF NOT AND SWAP2 ISZERO ISZERO SWAP2 SWAP1 SWAP2 OR SWAP1 SSTORE PUSH1 0xA0 SWAP1 SWAP2 ADD MLOAD PUSH1 0x5 SWAP1 SWAP2 ADD SSTORE PUSH1 0x1 DUP1 SLOAD DUP1 DUP3 ADD DUP3 SSTORE PUSH0 SWAP2 DUP3 MSTORE PUSH32 0xB10E2D527612073B26EECDFD717E6A320CF44B4AFAC2B0732D9FCBE2B7FA0CF6 ADD DUP8 SWAP1 SSTORE JUMPDEST DUP5 DUP2 LT ISZERO PUSH2 0x640 JUMPI PUSH1 0x2 DUP7 DUP7 DUP4 DUP2 DUP2 LT PUSH2 0x5F5 JUMPI PUSH2 0x5F5 PUSH2 0xF14 JUMP JUMPDEST SWAP1 POP PUSH1 0x20 MUL DUP2 ADD SWAP1 PUSH2 0x607 SWAP2 SWAP1 PUSH2 0xF28 JUMP JUMPDEST PUSH1 0x40 MLOAD PUSH2 0x615 SWAP3 SWAP2 SWAP1 PUSH2 0xF6A JUMP JUMPDEST SWAP1 DUP2 MSTORE PUSH1 0x40 MLOAD PUSH1 0x20 SWAP2 DUP2 SWAP1 SUB DUP3 ADD SWAP1 KECCAK256 DUP1 SLOAD PUSH1 0x1 DUP1 DUP3 ADD DUP4 SSTORE PUSH0 SWAP3 DUP4 MSTORE SWAP3 SWAP1 SWAP2 KECCAK256 ADD DUP9 SWAP1 SSTORE ADD PUSH2 0x5D9 JUMP JUMPDEST POP CALLER PUSH1 0x1 PUSH1 0x1 PUSH1 0xA0 SHL SUB AND DUP7 PUSH32 0x7BA2A9B029AAD65C4BB52DA5355DB9320BA41DE9F1766FB900D72F0DD5AE152F DUP8 DUP8 DUP8 PUSH1 0x40 MLOAD PUSH2 0x67F SWAP4 SWAP3 SWAP2 SWAP1 PUSH2 0xFA1 JUMP JUMPDEST PUSH1 0x40 MLOAD DUP1 SWAP2 SUB SWAP1 LOG3 POP POP POP POP POP POP JUMP JUMPDEST PUSH0 DUP2 DUP2 MSTORE PUSH1 0x20 DUP2 DUP2 MSTORE PUSH1 0x40 DUP1 DUP4 KECCAK256 DUP1 SLOAD PUSH1 0x2 DUP3 ADD SLOAD PUSH1 0x4 DUP4 ADD SLOAD PUSH1 0x5 DUP5 ADD SLOAD PUSH1 0x1 DUP6 ADD DUP1 SLOAD DUP8 MLOAD DUP2 DUP11 MUL DUP2 ADD DUP11 ADD SWAP1 SWAP9 MSTORE DUP1 DUP9 MSTORE PUSH1 0x60 SWAP9 DUP11 SWAP9 DUP11 SWAP9 DUP11 SWAP9 DUP10 SWAP9 SWAP2 SWAP8 PUSH1 0x1 PUSH1 0x1 PUSH1 0xA0 SHL SUB SWAP1 SWAP2 AND SWAP7 SWAP2 SWAP5 PUSH1 0x3 DUP10 ADD SWAP5 PUSH1 0xFF SWAP1 SWAP3 AND SWAP4 SWAP2 DUP8 SWAP2 SWAP1 DUP12 SWAP1 DUP5 ADD JUMPDEST DUP3 DUP3 LT ISZERO PUSH2 0x79A JUMPI DUP4 DUP3 SWAP1 PUSH0 MSTORE PUSH1 0x20 PUSH0 KECCAK256 ADD DUP1 SLOAD PUSH2 0x70F SWAP1 PUSH2 0xD52 JUMP JUMPDEST DUP1 PUSH1 0x1F ADD PUSH1 0x20 DUP1 SWAP2 DIV MUL PUSH1 0x20 ADD PUSH1 0x40 MLOAD SWAP1 DUP2 ADD PUSH1 0x40 MSTORE DUP1 SWAP3 SWAP2 SWAP1 DUP2 DUP2 MSTORE PUSH1 0x20 ADD DUP3 DUP1 SLOAD PUSH2 0x73B SWAP1 PUSH2 0xD52 JUMP JUMPDEST DUP1 ISZERO PUSH2 0x786 JUMPI DUP1 PUSH1 0x1F LT PUSH2 0x75D JUMPI PUSH2 0x100 DUP1 DUP4 SLOAD DIV MUL DUP4 MSTORE SWAP2 PUSH1 0x20 ADD SWAP2 PUSH2 0x786 JUMP JUMPDEST DUP3 ADD SWAP2 SWAP1 PUSH0 MSTORE PUSH1 0x20 PUSH0 KECCAK256 SWAP1 JUMPDEST DUP2 SLOAD DUP2 MSTORE SWAP1 PUSH1 0x1 ADD SWAP1 PUSH1 0x20 ADD DUP1 DUP4 GT PUSH2 0x769 JUMPI DUP3 SWAP1 SUB PUSH1 0x1F AND DUP3 ADD SWAP2 JUMPDEST POP POP POP POP POP DUP2 MSTORE PUSH1 0x20 ADD SWAP1 PUSH1 0x1 ADD SWAP1 PUSH2 0x6F2 JUMP JUMPDEST POP POP POP POP SWAP5 POP DUP3 DUP1 SLOAD PUSH2 0x7AC SWAP1 PUSH2 0xD52 JUMP JUMPDEST DUP1 PUSH1 0x1F ADD PUSH1 0x20 DUP1 SWAP2 DIV MUL PUSH1 0x20 ADD PUSH1 0x40 MLOAD SWAP1 DUP2 ADD PUSH1 0x40 MSTORE DUP1 SWAP3 SWAP2 SWAP1 DUP2 DUP2 MSTORE PUSH1 0x20 ADD DUP3 DUP1 SLOAD PUSH2 0x7D8 SWAP1 PUSH2 0xD52 JUMP JUMPDEST DUP1 ISZERO PUSH2 0x823 JUMPI DUP1 PUSH1 0x1F LT PUSH2 0x7FA JUMPI PUSH2 0x100 DUP1 DUP4 SLOAD DIV MUL DUP4 MSTORE SWAP2 PUSH1 0x20 ADD SWAP2 PUSH2 0x823 JUMP JUMPDEST DUP3 ADD SWAP2 SWAP1 PUSH0 MSTORE PUSH1 0x20 PUSH0 KECCAK256 SWAP1 JUMPDEST DUP2 SLOAD DUP2 MSTORE SWAP1 PUSH1 0x1 ADD SWAP1 PUSH1 0x20 ADD DUP1 DUP4 GT PUSH2 0x806 JUMPI DUP3 SWAP1 SUB PUSH1 0x1F AND DUP3 ADD SWAP2 JUMPDEST POP POP POP POP POP SWAP3 POP SWAP7 POP SWAP7 POP SWAP7 POP SWAP7 POP SWAP7 POP SWAP7 POP POP SWAP2 SWAP4 SWAP6 POP SWAP2 SWAP4 SWAP6 JUMP JUMPDEST DUP2 MLOAD PUSH1 0x20 DUP2 DUP5 ADD DUP2 ADD DUP1 MLOAD PUSH1 0x2 DUP3 MSTORE SWAP3 DUP3 ADD SWAP2 DUP6 ADD SWAP2 SWAP1 SWAP2 KECCAK256 SWAP2 SWAP1 MSTORE DUP1 SLOAD DUP3 SWAP1 DUP2 LT PUSH2 0x86A JUMPI PUSH0 DUP1 REVERT JUMPDEST SWAP1 PUSH0 MSTORE PUSH1 0x20 PUSH0 KECCAK256 ADD PUSH0 SWAP2 POP SWAP2 POP POP SLOAD DUP2 JUMP JUMPDEST PUSH1 0x60 PUSH1 0x2 DUP4 DUP4 PUSH1 0x40 MLOAD PUSH2 0x890 SWAP3 SWAP2 SWAP1 PUSH2 0xF6A JUMP JUMPDEST SWAP1 DUP2 MSTORE PUSH1 0x40 DUP1 MLOAD SWAP2 DUP3 SWAP1 SUB PUSH1 0x20 SWAP1 DUP2 ADD DUP4 KECCAK256 DUP1 SLOAD DUP1 DUP4 MUL DUP6 ADD DUP4 ADD SWAP1 SWAP4 MSTORE DUP3 DUP5 MSTORE SWAP2 SWAP1 DUP4 ADD DUP3 DUP3 DUP1 ISZERO PUSH2 0x8E0 JUMPI PUSH1 0x20 MUL DUP3 ADD SWAP2 SWAP1 PUSH0 MSTORE PUSH1 0x20 PUSH0 KECCAK256 SWAP1 JUMPDEST DUP2 SLOAD DUP2 MSTORE PUSH1 0x20 ADD SWAP1 PUSH1 0x1 ADD SWAP1 DUP1 DUP4 GT PUSH2 0x8CC JUMPI JUMPDEST POP POP POP POP POP SWAP1 POP SWAP3 SWAP2 POP POP JUMP JUMPDEST DUP3 DUP1 SLOAD DUP3 DUP3 SSTORE SWAP1 PUSH0 MSTORE PUSH1 0x20 PUSH0 KECCAK256 SWAP1 DUP2 ADD SWAP3 DUP3 ISZERO PUSH2 0x931 JUMPI SWAP2 PUSH1 0x20 MUL DUP3 ADD JUMPDEST DUP3 DUP2 GT ISZERO PUSH2 0x931 JUMPI DUP3 MLOAD DUP3 SWAP1 PUSH2 0x921 SWAP1 DUP3 PUSH2 0xE5A JUMP JUMPDEST POP SWAP2 PUSH1 0x20 ADD SWAP2 SWAP1 PUSH1 0x1 ADD SWAP1 PUSH2 0x90B JUMP JUMPDEST POP PUSH2 0x93D SWAP3 SWAP2 POP PUSH2 0x941 JUMP JUMPDEST POP SWAP1 JUMP JUMPDEST DUP1 DUP3 GT ISZERO PUSH2 0x93D JUMPI PUSH0 PUSH2 0x954 DUP3 DUP3 PUSH2 0x95D JUMP JUMPDEST POP PUSH1 0x1 ADD PUSH2 0x941 JUMP JUMPDEST POP DUP1 SLOAD PUSH2 0x969 SWAP1 PUSH2 0xD52 JUMP JUMPDEST PUSH0 DUP3 SSTORE DUP1 PUSH1 0x1F LT PUSH2 0x978 JUMPI POP POP JUMP JUMPDEST PUSH1 0x1F ADD PUSH1 0x20 SWAP1 DIV SWAP1 PUSH0 MSTORE PUSH1 0x20 PUSH0 KECCAK256 SWAP1 DUP2 ADD SWAP1 PUSH2 0x994 SWAP2 SWAP1 PUSH2 0x997 JUMP JUMPDEST POP JUMP JUMPDEST JUMPDEST DUP1 DUP3 GT ISZERO PUSH2 0x93D JUMPI PUSH0 DUP2 SSTORE PUSH1 0x1 ADD PUSH2 0x998 JUMP JUMPDEST PUSH1 0x20 DUP1 DUP3 MSTORE DUP3 MLOAD DUP3 DUP3 ADD DUP2 SWAP1 MSTORE PUSH0 SWAP2 DUP5 ADD SWAP1 PUSH1 0x40 DUP5 ADD SWAP1 DUP4 JUMPDEST DUP2 DUP2 LT ISZERO PUSH2 0x9E2 JUMPI DUP4 MLOAD DUP4 MSTORE PUSH1 0x20 SWAP4 DUP5 ADD SWAP4 SWAP1 SWAP3 ADD SWAP2 PUSH1 0x1 ADD PUSH2 0x9C4 JUMP JUMPDEST POP SWAP1 SWAP6 SWAP5 POP POP POP POP POP JUMP JUMPDEST PUSH0 PUSH1 0x20 DUP3 DUP5 SUB SLT ISZERO PUSH2 0x9FD JUMPI PUSH0 PUSH0 REVERT JUMPDEST POP CALLDATALOAD SWAP2 SWAP1 POP JUMP JUMPDEST PUSH0 DUP2 MLOAD DUP1 DUP5 MSTORE DUP1 PUSH1 0x20 DUP5 ADD PUSH1 0x20 DUP7 ADD MCOPY PUSH0 PUSH1 0x20 DUP3 DUP7 ADD ADD MSTORE PUSH1 0x20 PUSH1 0x1F NOT PUSH1 0x1F DUP4 ADD AND DUP6 ADD ADD SWAP2 POP POP SWAP3 SWAP2 POP POP JUMP JUMPDEST PUSH1 0x1 DUP1 PUSH1 0xA0 SHL SUB DUP7 AND DUP2 MSTORE DUP5 PUSH1 0x20 DUP3 ADD MSTORE PUSH1 0xA0 PUSH1 0x40 DUP3 ADD MSTORE PUSH0 PUSH2 0xA58 PUSH1 0xA0 DUP4 ADD DUP7 PUSH2 0xA04 JUMP JUMPDEST SWAP4 ISZERO ISZERO PUSH1 0x60 DUP4 ADD MSTORE POP PUSH1 0x80 ADD MSTORE SWAP4 SWAP3 POP POP POP JUMP JUMPDEST PUSH0 PUSH0 PUSH1 0x40 DUP4 DUP6 SUB SLT ISZERO PUSH2 0xA7D JUMPI PUSH0 PUSH0 REVERT JUMPDEST POP POP DUP1 CALLDATALOAD SWAP3 PUSH1 0x20 SWAP1 SWAP2 ADD CALLDATALOAD SWAP2 POP JUMP JUMPDEST PUSH0 PUSH0 DUP4 PUSH1 0x1F DUP5 ADD SLT PUSH2 0xA9C JUMPI PUSH0 PUSH0 REVERT JUMPDEST POP DUP2 CALLDATALOAD PUSH1 0x1 PUSH1 0x1 PUSH1 0x40 SHL SUB DUP2 GT ISZERO PUSH2 0xAB2 JUMPI PUSH0 PUSH0 REVERT JUMPDEST PUSH1 0x20 DUP4 ADD SWAP2 POP DUP4 PUSH1 0x20 DUP3 DUP6 ADD ADD GT ISZERO PUSH2 0xAC9 JUMPI PUSH0 PUSH0 REVERT JUMPDEST SWAP3 POP SWAP3 SWAP1 POP JUMP JUMPDEST PUSH0 PUSH0 PUSH0 PUSH0 PUSH0 PUSH0 PUSH1 0x80 DUP8 DUP10 SUB SLT ISZERO PUSH2 0xAE5 JUMPI PUSH0 PUSH0 REVERT JUMPDEST DUP7 CALLDATALOAD SWAP6 POP PUSH1 0x20 DUP8 ADD CALLDATALOAD PUSH1 0x1 PUSH1 0x1 PUSH1 0x40 SHL SUB DUP2 GT ISZERO PUSH2 0xB01 JUMPI PUSH0 PUSH0 REVERT JUMPDEST DUP8 ADD PUSH1 0x1F DUP2 ADD DUP10 SGT PUSH2 0xB11 JUMPI PUSH0 PUSH0 REVERT JUMPDEST DUP1 CALLDATALOAD PUSH1 0x1 PUSH1 0x1 PUSH1 0x40 SHL SUB DUP2 GT ISZERO PUSH2 0xB26 JUMPI PUSH0 PUSH0 REVERT JUMPDEST DUP10 PUSH1 0x20 DUP3 PUSH1 0x5 SHL DUP5 ADD ADD GT ISZERO PUSH2 0xB3A JUMPI PUSH0 PUSH0 REVERT JUMPDEST PUSH1 0x20 SWAP2 SWAP1 SWAP2 ADD SWAP6 POP SWAP4 POP PUSH1 0x40 DUP8 ADD CALLDATALOAD SWAP3 POP PUSH1 0x60 DUP8 ADD CALLDATALOAD PUSH1 0x1 PUSH1 0x1 PUSH1 0x40 SHL SUB DUP2 GT ISZERO PUSH2 0xB63 JUMPI PUSH0 PUSH0 REVERT JUMPDEST PUSH2 0xB6F DUP10 DUP3 DUP11 ADD PUSH2 0xA8C JUMP JUMPDEST SWAP8 SWAP11 SWAP7 SWAP10 POP SWAP5 SWAP8 POP SWAP3 SWAP6 SWAP4 SWAP5 SWAP3 POP POP POP JUMP JUMPDEST PUSH0 PUSH1 0xC0 DUP3 ADD PUSH1 0x1 DUP1 PUSH1 0xA0 SHL SUB DUP10 AND DUP4 MSTORE PUSH1 0xC0 PUSH1 0x20 DUP5 ADD MSTORE DUP1 DUP9 MLOAD DUP1 DUP4 MSTORE PUSH1 0xE0 DUP6 ADD SWAP2 POP PUSH1 0xE0 DUP2 PUSH1 0x5 SHL DUP7 ADD ADD SWAP3 POP PUSH1 0x20 DUP11 ADD PUSH0 JUMPDEST DUP3 DUP2 LT ISZERO PUSH2 0xBE6 JUMPI PUSH1 0xDF NOT DUP8 DUP7 SUB ADD DUP5 MSTORE PUSH2 0xBD1 DUP6 DUP4 MLOAD PUSH2 0xA04 JUMP JUMPDEST SWAP5 POP PUSH1 0x20 SWAP4 DUP5 ADD SWAP4 SWAP2 SWAP1 SWAP2 ADD SWAP1 PUSH1 0x1 ADD PUSH2 0xBB5 JUMP JUMPDEST POP POP POP POP DUP7 PUSH1 0x40 DUP5 ADD MSTORE DUP3 DUP2 SUB PUSH1 0x60 DUP5 ADD MSTORE PUSH2 0xC02 DUP2 DUP8 PUSH2 0xA04 JUMP JUMPDEST SWAP2 POP POP PUSH2 0xC13 PUSH1 0x80 DUP4 ADD DUP6 ISZERO ISZERO SWAP1 MSTORE JUMP JUMPDEST DUP3 PUSH1 0xA0 DUP4 ADD MSTORE SWAP8 SWAP7 POP POP POP POP POP POP POP JUMP JUMPDEST PUSH4 0x4E487B71 PUSH1 0xE0 SHL PUSH0 MSTORE PUSH1 0x41 PUSH1 0x4 MSTORE PUSH1 0x24 PUSH0 REVERT JUMPDEST PUSH1 0x40 MLOAD PUSH1 0x1F DUP3 ADD PUSH1 0x1F NOT AND DUP2 ADD PUSH1 0x1 PUSH1 0x1 PUSH1 0x40 SHL SUB DUP2 GT DUP3 DUP3 LT OR ISZERO PUSH2 0xC60 JUMPI PUSH2 0xC60 PUSH2 0xC24 JUMP JUMPDEST PUSH1 0x40 MSTORE SWAP2 SWAP1 POP JUMP JUMPDEST PUSH0 DUP3 PUSH1 0x1F DUP4 ADD SLT PUSH2 0xC77 JUMPI PUSH0 PUSH0 REVERT JUMPDEST DUP2 CALLDATALOAD PUSH1 0x1 PUSH1 0x1 PUSH1 0x40 SHL SUB DUP2 GT ISZERO PUSH2 0xC90 JUMPI PUSH2 0xC90 PUSH2 0xC24 JUMP JUMPDEST PUSH2 0xCA3 PUSH1 0x1F DUP3 ADD PUSH1 0x1F NOT AND PUSH1 0x20 ADD PUSH2 0xC38 JUMP JUMPDEST DUP2 DUP2 MSTORE DUP5 PUSH1 0x20 DUP4 DUP7 ADD ADD GT ISZERO PUSH2 0xCB7 JUMPI PUSH0 PUSH0 REVERT JUMPDEST DUP2 PUSH1 0x20 DUP6 ADD PUSH1 0x20 DUP4 ADD CALLDATACOPY PUSH0 SWAP2 DUP2 ADD PUSH1 0x20 ADD SWAP2 SWAP1 SWAP2 MSTORE SWAP4 SWAP3 POP POP POP JUMP JUMPDEST PUSH0 PUSH0 PUSH1 0x40 DUP4 DUP6 SUB SLT ISZERO PUSH2 0xCE4 JUMPI PUSH0 PUSH0 REVERT JUMPDEST DUP3 CALLDATALOAD PUSH1 0x1 PUSH1 0x1 PUSH1 0x40 SHL SUB DUP2 GT ISZERO PUSH2 0xCF9 JUMPI PUSH0 PUSH0 REVERT JUMPDEST PUSH2 0xD05 DUP6 DUP3 DUP7 ADD PUSH2 0xC68 JUMP JUMPDEST SWAP6 PUSH1 0x20 SWAP5 SWAP1 SWAP5 ADD CALLDATALOAD SWAP5 POP POP POP POP JUMP JUMPDEST PUSH0 PUSH0 PUSH1 0x20 DUP4 DUP6 SUB SLT ISZERO PUSH2 0xD25 JUMPI PUSH0 PUSH0 REVERT JUMPDEST DUP3 CALLDATALOAD PUSH1 0x1 PUSH1 0x1 PUSH1 0x40 SHL SUB DUP2 GT ISZERO PUSH2 0xD3A JUMPI PUSH0 PUSH0 REVERT JUMPDEST PUSH2 0xD46 DUP6 DUP3 DUP7 ADD PUSH2 0xA8C JUMP JUMPDEST SWAP1 SWAP7 SWAP1 SWAP6 POP SWAP4 POP POP POP POP JUMP JUMPDEST PUSH1 0x1 DUP2 DUP2 SHR SWAP1 DUP3 AND DUP1 PUSH2 0xD66 JUMPI PUSH1 0x7F DUP3 AND SWAP2 POP JUMPDEST PUSH1 0x20 DUP3 LT DUP2 SUB PUSH2 0xD84 JUMPI PUSH4 0x4E487B71 PUSH1 0xE0 SHL PUSH0 MSTORE PUSH1 0x22 PUSH1 0x4 MSTORE PUSH1 0x24 PUSH0 REVERT JUMPDEST POP SWAP2 SWAP1 POP JUMP JUMPDEST PUSH0 PUSH1 0x1 PUSH1 0x1 PUSH1 0x40 SHL SUB DUP4 GT ISZERO PUSH2 0xDA2 JUMPI PUSH2 0xDA2 PUSH2 0xC24 JUMP JUMPDEST DUP3 PUSH1 0x5 SHL PUSH2 0xDB2 PUSH1 0x20 DUP3 ADD PUSH2 0xC38 JUMP JUMPDEST DUP5 DUP2 MSTORE SWAP1 DUP4 ADD SWAP1 PUSH1 0x20 DUP2 ADD SWAP1 CALLDATASIZE DUP4 GT ISZERO PUSH2 0xDCA JUMPI PUSH0 PUSH0 REVERT JUMPDEST DUP5 JUMPDEST DUP4 DUP2 LT ISZERO PUSH2 0xE04 JUMPI DUP1 CALLDATALOAD PUSH1 0x1 PUSH1 0x1 PUSH1 0x40 SHL SUB DUP2 GT ISZERO PUSH2 0xDE9 JUMPI PUSH0 PUSH0 REVERT JUMPDEST PUSH2 0xDF5 CALLDATASIZE DUP3 DUP10 ADD PUSH2 0xC68 JUMP JUMPDEST DUP5 MSTORE POP PUSH1 0x20 SWAP3 DUP4 ADD SWAP3 ADD PUSH2 0xDCC JUMP JUMPDEST POP SWAP6 SWAP5 POP POP POP POP POP JUMP JUMPDEST PUSH1 0x1F DUP3 GT ISZERO PUSH2 0xE55 JUMPI DUP1 PUSH0 MSTORE PUSH1 0x20 PUSH0 KECCAK256 PUSH1 0x1F DUP5 ADD PUSH1 0x5 SHR DUP2 ADD PUSH1 0x20 DUP6 LT ISZERO PUSH2 0xE33 JUMPI POP DUP1 JUMPDEST PUSH1 0x1F DUP5 ADD PUSH1 0x5 SHR DUP3 ADD SWAP2 POP JUMPDEST DUP2 DUP2 LT ISZERO PUSH2 0xE52 JUMPI PUSH0 DUP2 SSTORE PUSH1 0x1 ADD PUSH2 0xE3F JUMP JUMPDEST POP POP JUMPDEST POP POP POP JUMP JUMPDEST DUP2 MLOAD PUSH1 0x1 PUSH1 0x1 PUSH1 0x40 SHL SUB DUP2 GT ISZERO PUSH2 0xE73 JUMPI PUSH2 0xE73 PUSH2 0xC24 JUMP JUMPDEST PUSH2 0xE87 DUP2 PUSH2 0xE81 DUP5 SLOAD PUSH2 0xD52 JUMP JUMPDEST DUP5 PUSH2 0xE0E JUMP JUMPDEST PUSH1 0x20 PUSH1 0x1F DUP3 GT PUSH1 0x1 DUP2 EQ PUSH2 0xEB9 JUMPI PUSH0 DUP4 ISZERO PUSH2 0xEA2 JUMPI POP DUP5 DUP3 ADD MLOAD JUMPDEST PUSH0 NOT PUSH1 0x3 DUP6 SWAP1 SHL SHR NOT AND PUSH1 0x1 DUP5 SWAP1 SHL OR DUP5 SSTORE PUSH2 0xE52 JUMP JUMPDEST PUSH0 DUP5 DUP2 MSTORE PUSH1 0x20 DUP2 KECCAK256 PUSH1 0x1F NOT DUP6 AND SWAP2 JUMPDEST DUP3 DUP2 LT ISZERO PUSH2 0xEE8 JUMPI DUP8 DUP6 ADD MLOAD DUP3 SSTORE PUSH1 0x20 SWAP5 DUP6 ADD SWAP5 PUSH1 0x1 SWAP1 SWAP3 ADD SWAP2 ADD PUSH2 0xEC8 JUMP JUMPDEST POP DUP5 DUP3 LT ISZERO PUSH2 0xF05 JUMPI DUP7 DUP5 ADD MLOAD PUSH0 NOT PUSH1 0x3 DUP8 SWAP1 SHL PUSH1 0xF8 AND SHR NOT AND DUP2 SSTORE JUMPDEST POP POP POP POP PUSH1 0x1 SWAP1 DUP2 SHL ADD SWAP1 SSTORE POP JUMP JUMPDEST PUSH4 0x4E487B71 PUSH1 0xE0 SHL PUSH0 MSTORE PUSH1 0x32 PUSH1 0x4 MSTORE PUSH1 0x24 PUSH0 REVERT JUMPDEST PUSH0 PUSH0 DUP4 CALLDATALOAD PUSH1 0x1E NOT DUP5 CALLDATASIZE SUB ADD DUP2 SLT PUSH2 0xF3D JUMPI PUSH0 PUSH0 REVERT JUMPDEST DUP4 ADD DUP1 CALLDATALOAD SWAP2 POP PUSH1 0x1 PUSH1 0x1 PUSH1 0x40 SHL SUB DUP3 GT ISZERO PUSH2 0xF56 JUMPI PUSH0 PUSH0 REVERT JUMPDEST PUSH1 0x20 ADD SWAP2 POP CALLDATASIZE DUP2 SWAP1 SUB DUP3 SGT ISZERO PUSH2 0xAC9 JUMPI PUSH0 PUSH0 REVERT JUMPDEST DUP2 DUP4 DUP3 CALLDATACOPY PUSH0 SWAP2 ADD SWAP1 DUP2 MSTORE SWAP2 SWAP1 POP JUMP JUMPDEST DUP2 DUP4 MSTORE DUP2 DUP2 PUSH1 0x20 DUP6 ADD CALLDATACOPY POP PUSH0 DUP3 DUP3 ADD PUSH1 0x20 SWAP1 DUP2 ADD SWAP2 SWAP1 SWAP2 MSTORE PUSH1 0x1F SWAP1 SWAP2 ADD PUSH1 0x1F NOT AND SWAP1 SWAP2 ADD ADD SWAP1 JUMP JUMPDEST PUSH1 0x40 DUP1 DUP3 MSTORE DUP2 ADD DUP4 SWAP1 MSTORE PUSH0 PUSH1 0x60 PUSH1 0x5 DUP6 SWAP1 SHL DUP4 ADD DUP2 ADD SWAP1 DUP4 ADD DUP7 DUP4 PUSH1 0x1E NOT CALLDATASIZE DUP4 SWAP1 SUB ADD JUMPDEST DUP9 DUP3 LT ISZERO PUSH2 0x1032 JUMPI DUP7 DUP6 SUB PUSH1 0x5F NOT ADD DUP5 MSTORE DUP3 CALLDATALOAD DUP2 DUP2 SLT PUSH2 0xFE3 JUMPI PUSH0 PUSH0 REVERT JUMPDEST DUP11 ADD PUSH1 0x20 DUP2 ADD SWAP1 CALLDATALOAD PUSH1 0x1 PUSH1 0x1 PUSH1 0x40 SHL SUB DUP2 GT ISZERO PUSH2 0xFFE JUMPI PUSH0 PUSH0 REVERT JUMPDEST DUP1 CALLDATASIZE SUB DUP3 SGT ISZERO PUSH2 0x100C JUMPI PUSH0 PUSH0 REVERT JUMPDEST PUSH2 0x1017 DUP8 DUP3 DUP5 PUSH2 0xF79 JUMP JUMPDEST SWAP7 POP POP POP PUSH1 0x20 DUP4 ADD SWAP3 POP PUSH1 0x20 DUP5 ADD SWAP4 POP PUSH1 0x1 DUP3 ADD SWAP2 POP PUSH2 0xFC5 JUMP JUMPDEST POP POP POP POP PUSH1 0x20 SWAP3 SWAP1 SWAP3 ADD SWAP3 SWAP1 SWAP3 MSTORE SWAP4 SWAP3 POP POP POP JUMP INVALID LOG2 PUSH5 0x6970667358 0x22 SLT KECCAK256 0x26 SLT NOT PUSH13 0xE74F439EE16B48048E6C4532A9 SLT MULMOD 0xD9 0xEF KECCAK256 0xD2 BYTE 0xB5 MULMOD BLOBBASEFEE 0xDA 0xFC CHAINID 0xA6 0xAF PUSH5 0x736F6C6343 STOP ADDMOD SHR STOP CALLER "},"methodIdentifiers":{"agentIds(uint256)":"56e76058","agents(bytes32)":"2e20ee18","deactivateAgent(bytes32)":"59b5acf3","getAgent(bytes32)":"a6c2af01","getAgentsBySkill(string)":"d91b6b7d","getAllAgentIds()":"1136a595","getTotalAgents()":"3731a16f","registerAgent(bytes32,string[],uint256,string)":"a2c1d067","skillToAgents(string,uint256)":"cdbdc3f7","updateCost(bytes32,uint256)":"904cd34e"}}}}}