{"project/contracts/TaskEscrow.sol":{"TaskEscrow":{"abi":[{"anonymous":false,"inputs":[{"indexed":true,"internalType":"bytes32","name":"taskId","type":"bytes32"},{"indexed":true,"internalType":"bytes32","name":"subtaskId","type":"bytes32"},{"indexed":false,"internalType":"bytes32","name":"proofHash","type":"bytes32"}],"name":"ProofSubmitted","type":"event"},{"anonymous":false,"inputs":[{"indexed":true,"internalType":"bytes32","name":"taskId","type":"bytes32"},{"indexed":false,"internalType":"uint256","name":"totalReleased","type":"uint256"}],"name":"TaskCompleted","type":"event"},{"anonymous":false,"inputs":[{"indexed":true,"internalType":"bytes32","name":"taskId","type":"bytes32"},{"indexed":true,"internalType":"address","name":"depositor","type":"address"},{"indexed":false,"internalType":"uint256","name":"amount","type":"uint256"}],"name":"TaskCreated","type":"event"},{"anonymous":false,"inputs":[{"indexed":true,"internalType":"bytes32","name":"taskId","type":"bytes32"},{"indexed":false,"internalType":"address","name":"depositor","type":"address"},{"indexed":false,"internalType":"uint256","name":"amount","type":"uint256"}],"name":"TaskRefunded","type":"event"},{"anonymous":false,"inputs":[{"indexed":true,"internalType":"bytes32","name":"taskId","type":"bytes32"},{"indexed":true,"internalType":"bytes32","name":"subtaskId","type":"bytes32"},{"indexed":true,"internalType":"address","name":"agent","type":"address"},{"indexed":false,"internalType":"uint256","name":"amount","type":"uint256"}],"name":"WorkApproved","type":"event"},{"inputs":[{"internalType":"bytes32","name":"taskId","type":"bytes32"},{"internalType":"bytes32","name":"subtaskId","type":"bytes32"},{"internalType":"address payable","name":"agent","type":"address"},{"internalType":"uint256","name":"amount","type":"uint256"}],"name":"approveWork","outputs":[],"stateMutability":"nonpayable","type":"function"},{"inputs":[{"internalType":"bytes32","name":"taskId","type":"bytes32"}],"name":"createTask","outputs":[],"stateMutability":"payable","type":"function"},{"inputs":[{"internalType":"bytes32","name":"taskId","type":"bytes32"},{"internalType":"bytes32","name":"subtaskId","type":"bytes32"}],"name":"getProof","outputs":[{"internalType":"bytes32","name":"proofHash","type":"bytes32"},{"internalType":"bool","name":"submitted","type":"bool"},{"internalType":"bool","name":"approved","type":"bool"}],"stateMutability":"view","type":"function"},{"inputs":[{"internalType":"bytes32","name":"taskId","type":"bytes32"}],"name":"getTask","outputs":[{"internalType":"address","name":"depositor","type":"address"},{"internalType":"uint256","name":"totalAmount","type":"uint256"},{"internalType":"uint256","name":"releasedAmount","type":"uint256"},{"internalType":"bool","name":"active","type":"bool"},{"internalType":"uint256","name":"createdAt","type":"uint256"}],"stateMutability":"view","type":"function"},{"inputs":[{"internalType":"bytes32","name":"","type":"bytes32"},{"internalType":"bytes32","name":"","type":"bytes32"}],"name":"proofs","outputs":[{"internalType":"bytes32","name":"proofHash","type":"bytes32"},{"internalType":"bool","name":"submitted","type":"bool"},{"internalType":"bool","name":"approved","type":"bool"},{"internalType":"uint256","name":"submittedAt","type":"uint256"}],"stateMutability":"view","type":"function"},{"inputs":[{"internalType":"bytes32","name":"taskId","type":"bytes32"}],"name":"refundRemaining","outputs":[],"stateMutability":"nonpayable","type":"function"},{"inputs":[{"internalType":"bytes32","name":"taskId","type":"bytes32"},{"internalType":"bytes32","name":"subtaskId","type":"bytes32"},{"internalType":"bytes32","name":"proofHash","type":"bytes32"}],"name":"submitProof","outputs":[],"stateMutability":"nonpayable","type":"function"},{"inputs":[{"internalType":"bytes32","name":"","type":"bytes32"}],"name":"tasks","outputs":[{"internalType":"address payable","name":"depositor","type":"address"},{"internalType":"uint256","name":"totalAmount","type":"uint256"},{"internalType":"uint256","name":"releasedAmount","type":"uint256"},{"internalType":"bool","name":"active","type":"bool"},{"internalType":"uint256","name":"createdAt","type":"uint256"}],"stateMutability":"view","type":"function"},{"stateMutability":"payable","type":"receive"}],"evm":{"bytecode":{"linkReferences":{},"object":"6080604052348015600e575f5ffd5b50610b0c8061001c5f395ff3fe60806040526004361061007c575f3560e01c80638a16a35f1161004c5780638a16a35f146101ca578063b293e81c1461022f578063c39bf97614610242578063e579f50014610261575f5ffd5b8063046ac4e11461008757806315a29035146100a85780634ece5685146101375780637efeb8f014610156575f5ffd5b3661008357005b5f5ffd5b348015610092575f5ffd5b506100a66100a13660046109c6565b6102b6565b005b3480156100b3575f5ffd5b506100fe6100c2366004610a0d565b5f90815260208190526040902080546001820154600283015460038401546004909401546001600160a01b03909316949193909260ff90911691565b604080516001600160a01b03909616865260208601949094529284019190915215156060830152608082015260a0015b60405180910390f35b348015610142575f5ffd5b506100a6610151366004610a24565b610570565b348015610161575f5ffd5b506101a4610170366004610a4d565b600160208181525f9384526040808520909152918352912080549181015460029091015460ff808316926101009004169084565b60408051948552921515602085015290151591830191909152606082015260800161012e565b3480156101d5575f5ffd5b506102126101e4366004610a4d565b5f91825260016020818152604080852093855292905291208054910154909160ff8083169261010090041690565b60408051938452911515602084015215159082015260600161012e565b6100a661023d366004610a0d565b6106bc565b34801561024d575f5ffd5b506100a661025c366004610a0d565b610808565b34801561026c575f5ffd5b506100fe61027b366004610a0d565b5f60208190529081526040902080546001820154600283015460038401546004909401546001600160a01b03909316939192909160ff169085565b5f848152602081905260409020600381015460ff166102f05760405162461bcd60e51b81526004016102e790610a6d565b60405180910390fd5b80546001600160a01b031633146103395760405162461bcd60e51b815260206004820152600d60248201526c2737ba103232b837b9b4ba37b960991b60448201526064016102e7565b5f858152600160208181526040808420888552909152909120015460ff166103995760405162461bcd60e51b8152602060048201526013602482015272141c9bdbd9881b9bdd081cdd589b5a5d1d1959606a1b60448201526064016102e7565b5f8581526001602081815260408084208885529091529091200154610100900460ff16156103fc5760405162461bcd60e51b815260206004820152601060248201526f105b1c9958591e48185c1c1c9bdd995960821b60448201526064016102e7565b80600101548282600201546104119190610aaa565b11156104505760405162461bcd60e51b815260206004820152600e60248201526d4578636565647320657363726f7760901b60448201526064016102e7565b5f858152600160208181526040808420888552909152822001805461ff00191661010017905560028201805484929061048a908490610aaa565b90915550506040515f906001600160a01b0385169084908381818185875af1925050503d805f81146104d7576040519150601f19603f3d011682016040523d82523d5f602084013e6104dc565b606091505b50509050806105235760405162461bcd60e51b81526020600482015260136024820152721353d3881d1c985b9cd9995c8819985a5b1959606a1b60448201526064016102e7565b836001600160a01b031685877f1446dd5c8438d97a6acb361e1cc3ef141769f8c4dfcd9ca7ebc32c459bd5f7518660405161056091815260200190565b60405180910390a4505050505050565b5f8381526020819052604090206003015460ff166105a05760405162461bcd60e51b81526004016102e790610a6d565b5f838152600160208181526040808420868552909152909120015460ff161561060b5760405162461bcd60e51b815260206004820152601760248201527f50726f6f6620616c7265616479207375626d697474656400000000000000000060448201526064016102e7565b60408051608081018252828152600160208083018281525f84860181815242606087019081528a83528585528783208a8452909452908690209451855590519284018054915115156101000261ff00199415159490941661ffff1990921691909117929092179091555160029091015551829084907f32c9117442431c0bcfdbbef33bc9918d148ad082e0f38d70bbde857f01d225c8906106af9085815260200190565b60405180910390a3505050565b5f8181526020819052604090206003015460ff16156107135760405162461bcd60e51b81526020600482015260136024820152725461736b20616c72656164792065786973747360681b60448201526064016102e7565b5f34116107525760405162461bcd60e51b815260206004820152600d60248201526c26bab9ba1039b2b7321026a7a760991b60448201526064016102e7565b6040805160a081018252338082523460208084018281525f8587018181526001606088018181524260808a019081528b8552848752938a9020985189546001600160a01b0319166001600160a01b03909116178955935190880155516002870155905160038601805460ff19169115159190911790555160049094019390935592519283529183917f5fb74283f874d0f894d0de9c856a2a842137dc2c21c621e080065c7b797c0095910160405180910390a350565b5f818152602081905260409020600381015460ff166108395760405162461bcd60e51b81526004016102e790610a6d565b80546001600160a01b031633146108825760405162461bcd60e51b815260206004820152600d60248201526c2737ba103232b837b9b4ba37b960991b60448201526064016102e7565b5f816002015482600101546108979190610ac3565b60038301805460ff191690559050801561093c5781546040515f916001600160a01b03169083908381818185875af1925050503d805f81146108f4576040519150601f19603f3d011682016040523d82523d5f602084013e6108f9565b606091505b505090508061093a5760405162461bcd60e51b815260206004820152600d60248201526c1499599d5b990819985a5b1959609a1b60448201526064016102e7565b505b8154604080516001600160a01b0390921682526020820183905284917ff3a7ab0ccbad7f367b7892962016c155d1ce76a3e6fdd0420b5e749763acbda7910160405180910390a2827f425461b244c16ff50abad00f390b37ec670910e5c1f71d0c3f4cfd35c0cadc9b83600201546040516109b991815260200190565b60405180910390a2505050565b5f5f5f5f608085870312156109d9575f5ffd5b843593506020850135925060408501356001600160a01b03811681146109fd575f5ffd5b9396929550929360600135925050565b5f60208284031215610a1d575f5ffd5b5035919050565b5f5f5f60608486031215610a36575f5ffd5b505081359360208301359350604090920135919050565b5f5f60408385031215610a5e575f5ffd5b50508035926020909101359150565b6020808252600f908201526e5461736b206e6f742061637469766560881b604082015260600190565b634e487b7160e01b5f52601160045260245ffd5b80820180821115610abd57610abd610a96565b92915050565b81810381811115610abd57610abd610a9656fea2646970667358221220ab7495a6eb4a19aaf7f9808db0d5b243550ae8b3b89991970ad2ede4108acc2764736f6c634300081c0033","opcodes":"PUSH1 0x80 PUSH1 0x40 MSTORE CALLVALUE DUP1 ISZERO PUSH1 0xE JUMPI PUSH0 PUSH0 REVERT JUMPDEST POP PUSH2 0xB0C DUP1 PUSH2 0x1C PUSH0 CODECOPY PUSH0 RETURN INVALID PUSH1 0x80 PUSH1 0x40 MSTORE PUSH1 0x4 CALLDATASIZE LT PUSH2 0x7C JUMPI PUSH0 CALLDATALOAD PUSH1 0xE0 SHR DUP1 PUSH4 0x8A16A35F GT PUSH2 0x4C JUMPI DUP1 PUSH4 0x8A16A35F EQ PUSH2 0x1CA JUMPI DUP1 PUSH4 0xB293E81C EQ PUSH2 0x22F JUMPI DUP1 PUSH4 0xC39BF976 EQ PUSH2 0x242 JUMPI DUP1 PUSH4 0xE579F500 EQ PUSH2 0x261 JUMPI PUSH0 PUSH0 REVERT JUMPDEST DUP1 PUSH4 0x46AC4E1 EQ PUSH2 0x87 JUMPI DUP1 PUSH4 0x15A29035 EQ PUSH2 0xA8 JUMPI DUP1 PUSH4 0x4ECE5685 EQ PUSH2 0x137 JUMPI DUP1 PUSH4 0x7EFEB8F0 EQ PUSH2 0x156 JUMPI PUSH0 PUSH0 REVERT JUMPDEST CALLDATASIZE PUSH2 0x83 JUMPI STOP JUMPDEST PUSH0 PUSH0 REVERT JUMPDEST CALLVALUE DUP1 ISZERO PUSH2 0x92 JUMPI PUSH0 PUSH0 REVERT JUMPDEST POP PUSH2 0xA6 PUSH2 0xA1 CALLDATASIZE PUSH1 0x4 PUSH2 0x9C6 JUMP JUMPDEST PUSH2 0x2B6 JUMP JUMPDEST STOP JUMPDEST CALLVALUE DUP1 ISZERO PUSH2 0xB3 JUMPI PUSH0 PUSH0 REVERT JUMPDEST POP PUSH2 0xFE PUSH2 0xC2 CALLDATASIZE PUSH1 0x4 PUSH2 0xA0D JUMP JUMPDEST PUSH0 SWAP1 DUP2 MSTORE PUSH1 0x20 DUP2 SWAP1 MSTORE PUSH1 0x40 SWAP1 KECCAK256 DUP1 SLOAD PUSH1 0x1 DUP3 ADD SLOAD PUSH1 0x2 DUP4 ADD SLOAD PUSH1 0x3 DUP5 ADD SLOAD PUSH1 0x4 SWAP1 SWAP5 ADD SLOAD PUSH1 0x1 PUSH1 0x1 PUSH1 0xA0 SHL SUB SWAP1 SWAP4 AND SWAP5 SWAP2 SWAP4 SWAP1 SWAP3 PUSH1 0xFF SWAP1 SWAP2 AND SWAP2 JUMP JUMPDEST PUSH1 0x40 DUP1 MLOAD PUSH1 0x1 PUSH1 0x1 PUSH1 0xA0 SHL SUB SWAP1 SWAP7 AND DUP7 MSTORE PUSH1 0x20 DUP7 ADD SWAP5 SWAP1 SWAP5 MSTORE SWAP3 DUP5 ADD SWAP2 SWAP1 SWAP2 MSTORE ISZERO ISZERO PUSH1 0x60 DUP4 ADD MSTORE PUSH1 0x80 DUP3 ADD MSTORE PUSH1 0xA0 ADD JUMPDEST PUSH1 0x40 MLOAD DUP1 SWAP2 SUB SWAP1 RETURN JUMPDEST CALLVALUE DUP1 ISZERO PUSH2 0x142 JUMPI PUSH0 PUSH0 REVERT JUMPDEST POP PUSH2 0xA6 PUSH2 0x151 CALLDATASIZE PUSH1 0x4 PUSH2 0xA24 JUMP JUMPDEST PUSH2 0x570 JUMP JUMPDEST CALLVALUE DUP1 ISZERO PUSH2 0x161 JUMPI PUSH0 PUSH0 REVERT JUMPDEST POP PUSH2 0x1A4 PUSH2 0x170 CALLDATASIZE PUSH1 0x4 PUSH2 0xA4D JUMP JUMPDEST PUSH1 0x1 PUSH1 0x20 DUP2 DUP2 MSTORE PUSH0 SWAP4 DUP5 MSTORE PUSH1 0x40 DUP1 DUP6 KECCAK256 SWAP1 SWAP2 MSTORE SWAP2 DUP4 MSTORE SWAP2 KECCAK256 DUP1 SLOAD SWAP2 DUP2 ADD SLOAD PUSH1 0x2 SWAP1 SWAP2 ADD SLOAD PUSH1 0xFF DUP1 DUP4 AND SWAP3 PUSH2 0x100 SWAP1 DIV AND SWAP1 DUP5 JUMP JUMPDEST PUSH1 0x40 DUP1 MLOAD SWAP5 DUP6 MSTORE SWAP3 ISZERO ISZERO PUSH1 0x20 DUP6 ADD MSTORE SWAP1 ISZERO ISZERO SWAP2 DUP4 ADD SWAP2 SWAP1 SWAP2 MSTORE PUSH1 0x60 DUP3 ADD MSTORE PUSH1 0x80 ADD PUSH2 0x12E JUMP JUMPDEST CALLVALUE DUP1 ISZERO PUSH2 0x1D5 JUMPI PUSH0 PUSH0 REVERT JUMPDEST POP PUSH2 0x212 PUSH2 0x1E4 CALLDATASIZE PUSH1 0x4 PUSH2 0xA4D JUMP JUMPDEST PUSH0 SWAP2 DUP3 MSTORE PUSH1 0x1 PUSH1 0x20 DUP2 DUP2 MSTORE PUSH1 0x40 DUP1 DUP6 KECCAK256 SWAP4 DUP6 MSTORE SWAP3 SWAP1 MSTORE SWAP2 KECCAK256 DUP1 SLOAD SWAP2 ADD SLOAD SWAP1 SWAP2 PUSH1 0xFF DUP1 DUP4 AND SWAP3 PUSH2 0x100 SWAP1 DIV AND SWAP1 JUMP JUMPDEST PUSH1 0x40 DUP1 MLOAD SWAP4 DUP5 MSTORE SWAP2 ISZERO ISZERO PUSH1 0x20 DUP5 ADD MSTORE ISZERO ISZERO SWAP1 DUP3 ADD MSTORE PUSH1 0x60 ADD PUSH2 0x12E JUMP JUMPDEST PUSH2 0xA6 PUSH2 0x23D CALLDATASIZE PUSH1 0x4 PUSH2 0xA0D JUMP JUMPDEST PUSH2 0x6BC JUMP JUMPDEST CALLVALUE DUP1 ISZERO PUSH2 0x24D JUMPI PUSH0 PUSH0 REVERT JUMPDEST POP PUSH2 0xA6 PUSH2 0x25C CALLDATASIZE PUSH1 0x4 PUSH2 0xA0D JUMP JUMPDEST PUSH2 0x808 JUMP JUMPDEST CALLVALUE DUP1 ISZERO PUSH2 0x26C JUMPI PUSH0 PUSH0 REVERT JUMPDEST POP PUSH2 0xFE PUSH2 0x27B CALLDATASIZE PUSH1 0x4 PUSH2 0xA0D JUMP JUMPDEST PUSH0 PUSH1 0x20 DUP2 SWAP1 MSTORE SWAP1 DUP2 MSTORE PUSH1 0x40 SWAP1 KECCAK256 DUP1 SLOAD PUSH1 0x1 DUP3 ADD SLOAD PUSH1 0x2 DUP4 ADD SLOAD PUSH1 0x3 DUP5 ADD SLOAD PUSH1 0x4 SWAP1 SWAP5 ADD SLOAD PUSH1 0x1 PUSH1 0x1 PUSH1 0xA0 SHL SUB SWAP1 SWAP4 AND SWAP4 SWAP2 SWAP3 SWAP1 SWAP2 PUSH1 0xFF AND SWAP1 DUP6 JUMP JUMPDEST PUSH0 DUP5 DUP2 MSTORE PUSH1 0x20 DUP2 SWAP1 MSTORE PUSH1 0x40 SWAP1 KECCAK256 PUSH1 0x3 DUP2 ADD SLOAD PUSH1 0xFF AND PUSH2 0x2F0 JUMPI PUSH1 0x40 MLOAD PUSH3 0x461BCD PUSH1 0xE5 SHL DUP2 MSTORE PUSH1 0x4 ADD PUSH2 0x2E7 SWAP1 PUSH2 0xA6D JUMP JUMPDEST PUSH1 0x40 MLOAD DUP1 SWAP2 SUB SWAP1 REVERT JUMPDEST DUP1 SLOAD PUSH1 0x1 PUSH1 0x1 PUSH1 0xA0 SHL SUB AND CALLER EQ PUSH2 0x339 JUMPI PUSH1 0x40 MLOAD PUSH3 0x461BCD PUSH1 0xE5 SHL DUP2 MSTORE PUSH1 0x20 PUSH1 0x4 DUP3 ADD MSTORE PUSH1 0xD PUSH1 0x24 DUP3 ADD MSTORE PUSH13 0x2737BA103232B837B9B4BA37B9 PUSH1 0x99 SHL PUSH1 0x44 DUP3 ADD MSTORE PUSH1 0x64 ADD PUSH2 0x2E7 JUMP JUMPDEST PUSH0 DUP6 DUP2 MSTORE PUSH1 0x1 PUSH1 0x20 DUP2 DUP2 MSTORE PUSH1 0x40 DUP1 DUP5 KECCAK256 DUP9 DUP6 MSTORE SWAP1 SWAP2 MSTORE SWAP1 SWAP2 KECCAK256 ADD SLOAD PUSH1 0xFF AND PUSH2 0x399 JUMPI PUSH1 0x40 MLOAD PUSH3 0x461BCD PUSH1 0xE5 SHL DUP2 MSTORE PUSH1 0x20 PUSH1 0x4 DUP3 ADD MSTORE PUSH1 0x13 PUSH1 0x24 DUP3 ADD MSTORE PUSH19 0x141C9BDBD9881B9BDD081CDD589B5A5D1D1959 PUSH1 0x6A SHL PUSH1 0x44 DUP3 ADD MSTORE PUSH1 0x64 ADD PUSH2 0x2E7 JUMP JUMPDEST PUSH0 DUP6 DUP2 MSTORE PUSH1 0x1 PUSH1 0x20 DUP2 DUP2 MSTORE PUSH1 0x40 DUP1 DUP5 KECCAK256 DUP9 DUP6 MSTORE SWAP1 SWAP2 MSTORE SWAP1 SWAP2 KECCAK256 ADD SLOAD PUSH2 0x100 SWAP1 DIV PUSH1 0xFF AND ISZERO PUSH2 0x3FC JUMPI PUSH1 0x40 MLOAD PUSH3 0x461BCD PUSH1 0xE5 SHL DUP2 MSTORE PUSH1 0x20 PUSH1 0x4 DUP3 ADD MSTORE PUSH1 0x10 PUSH1 0x24 DUP3 ADD MSTORE PUSH16 0x105B1C9958591E48185C1C1C9BDD9959 PUSH1 0x82 SHL PUSH1 0x44 DUP3 ADD MSTORE PUSH1 0x64 ADD PUSH2 0x2E7 JUMP JUMPDEST DUP1 PUSH1 0x1 ADD SLOAD DUP3 DUP3 PUSH1 0x2 ADD SLOAD PUSH2 0x411 SWAP2 SWAP1 PUSH2 0xAAA JUMP JUMPDEST GT ISZERO PUSH2 0x450 JUMPI PUSH1 0x40 MLOAD PUSH3 0x461BCD PUSH1 0xE5 SHL DUP2 MSTORE PUSH1 0x20 PUSH1 0x4 DUP3 ADD MSTORE PUSH1 0xE PUSH1 0x24 DUP3 ADD MSTORE PUSH14 0x4578636565647320657363726F77 PUSH1 0x90 SHL PUSH1 0x44 DUP3 ADD MSTORE PUSH1 0x64 ADD PUSH2 0x2E7 JUMP JUMPDEST PUSH0 DUP6 DUP2 MSTORE PUSH1 0x1 PUSH1 0x20 DUP2 DUP2 MSTORE PUSH1 0x40 DUP1 DUP5 KECCAK256 DUP9 DUP6 MSTORE SWAP1 SWAP2 MSTORE DUP3 KECCAK256 ADD DUP1 SLOAD PUSH2 0xFF00 NOT AND PUSH2 0x100 OR SWAP1 SSTORE PUSH1 0x2 DUP3 ADD DUP1 SLOAD DUP5 SWAP3 SWAP1 PUSH2 0x48A SWAP1 DUP5 SWAP1 PUSH2 0xAAA JUMP JUMPDEST SWAP1 SWAP2 SSTORE POP POP PUSH1 0x40 MLOAD PUSH0 SWAP1 PUSH1 0x1 PUSH1 0x1 PUSH1 0xA0 SHL SUB DUP6 AND SWAP1 DUP5 SWAP1 DUP4 DUP2 DUP2 DUP2 DUP6 DUP8 GAS CALL SWAP3 POP POP POP RETURNDATASIZE DUP1 PUSH0 DUP2 EQ PUSH2 0x4D7 JUMPI PUSH1 0x40 MLOAD SWAP2 POP PUSH1 0x1F NOT PUSH1 0x3F RETURNDATASIZE ADD AND DUP3 ADD PUSH1 0x40 MSTORE RETURNDATASIZE DUP3 MSTORE RETURNDATASIZE PUSH0 PUSH1 0x20 DUP5 ADD RETURNDATACOPY PUSH2 0x4DC JUMP JUMPDEST PUSH1 0x60 SWAP2 POP JUMPDEST POP POP SWAP1 POP DUP1 PUSH2 0x523 JUMPI PUSH1 0x40 MLOAD PUSH3 0x461BCD PUSH1 0xE5 SHL DUP2 MSTORE PUSH1 0x20 PUSH1 0x4 DUP3 ADD MSTORE PUSH1 0x13 PUSH1 0x24 DUP3 ADD MSTORE PUSH19 0x1353D3881D1C985B9CD9995C8819985A5B1959 PUSH1 0x6A SHL PUSH1 0x44 DUP3 ADD MSTORE PUSH1 0x64 ADD PUSH2 0x2E7 JUMP JUMPDEST DUP4 PUSH1 0x1 PUSH1 0x1 PUSH1 0xA0 SHL SUB AND DUP6 DUP8 PUSH32 0x1446DD5C8438D97A6ACB361E1CC3EF141769F8C4DFCD9CA7EBC32C459BD5F751 DUP7 PUSH1 0x40 MLOAD PUSH2 0x560 SWAP2 DUP2 MSTORE PUSH1 0x20 ADD SWAP1 JUMP JUMPDEST PUSH1 0x40 MLOAD DUP1 SWAP2 SUB SWAP1 LOG4 POP POP POP POP POP POP JUMP JUMPDEST PUSH0 DUP4 DUP2 MSTORE PUSH1 0x20 DUP2 SWAP1 MSTORE PUSH1 0x40 SWAP1 KECCAK256 PUSH1 0x3 ADD SLOAD PUSH1 0xFF AND PUSH2 0x5A0 JUMPI PUSH1 0x40 MLOAD PUSH3 0x461BCD PUSH1 0xE5 SHL DUP2 MSTORE PUSH1 0x4 ADD PUSH2 0x2E7 SWAP1 PUSH2 0xA6D JUMP JUMPDEST PUSH0 DUP4 DUP2 MSTORE PUSH1 0x1 PUSH1 0x20 DUP2 DUP2 MSTORE PUSH1 0x40 DUP1 DUP5 KECCAK256 DUP7 DUP6 MSTORE SWAP1 SWAP2 MSTORE SWAP1 SWAP2 KECCAK256 ADD SLOAD PUSH1 0xFF AND ISZERO PUSH2 0x60B JUMPI PUSH1 0x40 MLOAD PUSH3 0x461BCD PUSH1 0xE5 SHL DUP2 MSTORE PUSH1 0x20 PUSH1 0x4 DUP3 ADD MSTORE PUSH1 0x17 PUSH1 0x24 DUP3 ADD MSTORE PUSH32 0x50726F6F6620616C7265616479207375626D6974746564000000000000000000 PUSH1 0x44 DUP3 ADD MSTORE PUSH1 0x64 ADD PUSH2 0x2E7 JUMP JUMPDEST PUSH1 0x40 DUP1 MLOAD PUSH1 0x80 DUP2 ADD DUP3 MSTORE DUP3 DUP2 MSTORE PUSH1 0x1 PUSH1 0x20 DUP1 DUP4 ADD DUP3 DUP2 MSTORE PUSH0 DUP5 DUP7 ADD DUP2 DUP2 MSTORE TIMESTAMP PUSH1 0x60 DUP8 ADD SWAP1 DUP2 MSTORE DUP11 DUP4 MSTORE DUP6 DUP6 MSTORE DUP8 DUP4 KECCAK256 DUP11 DUP5 MSTORE SWAP1 SWAP5 MSTORE SWAP1 DUP7 SWAP1 KECCAK256 SWAP5 MLOAD DUP6 SSTORE SWAP1 MLOAD SWAP3 DUP5 ADD DUP1 SLOAD SWAP2 MLOAD ISZERO ISZERO PUSH2 0x100 MUL PUSH2 0xFF00 NOT SWAP5 ISZERO ISZERO SWAP5 SWAP1 SWAP5 AND PUSH2 0xFFFF NOT SWAP1 SWAP3 AND SWAP2 SWAP1 SWAP2 OR SWAP3 SWAP1 SWAP3 OR SWAP1 SWAP2 SSTORE MLOAD PUSH1 0x2 SWAP1 SWAP2 ADD SSTORE MLOAD DUP3 SWAP1 DUP5 SWAP1 PUSH32 0x32C9117442431C0BCFDBBEF33BC9918D148AD082E0F38D70BBDE857F01D225C8 SWAP1 PUSH2 0x6AF SWAP1 DUP6 DUP2 MSTORE PUSH1 0x20 ADD SWAP1 JUMP JUMPDEST PUSH1 0x40 MLOAD DUP1 SWAP2 SUB SWAP1 LOG3 POP POP POP JUMP JUMPDEST PUSH0 DUP2 DUP2 MSTORE PUSH1 0x20 DUP2 SWAP1 MSTORE PUSH1 0x40 SWAP1 KECCAK256 PUSH1 0x3 ADD SLOAD PUSH1 0xFF AND ISZERO PUSH2 0x713 JUMPI PUSH1 0x40 MLOAD PUSH3 0x461BCD PUSH1 0xE5 SHL DUP2 MSTORE PUSH1 0x20 PUSH1 0x4 DUP3 ADD MSTORE PUSH1 0x13 PUSH1 0x24 DUP3 ADD MSTORE PUSH19 0x5461736B20616C726561647920657869737473 PUSH1 0x68 SHL PUSH1 0x44 DUP3 ADD MSTORE PUSH1 0x64 ADD PUSH2 0x2E7 JUMP JUMPDEST PUSH0 CALLVALUE GT PUSH2 0x752 JUMPI PUSH1 0x40 MLOAD PUSH3 0x461BCD PUSH1 0xE5 SHL DUP2 MSTORE PUSH1 0x20 PUSH1 0x4 DUP3 ADD MSTORE PUSH1 0xD PUSH1 0x24 DUP3 ADD MSTORE PUSH13 0x26BAB9BA1039B2B7321026A7A7 PUSH1 0x99 SHL PUSH1 0x44 DUP3 ADD MSTORE PUSH1 0x64 ADD PUSH2 0x2E7 JUMP JUMPDEST PUSH1 0x40 DUP1 MLOAD PUSH1 0xA0 DUP2 ADD DUP3 MSTORE CALLER DUP1 DUP3 MSTORE CALLVALUE PUSH1 0x20 DUP1 DUP5 ADD DUP3 DUP2 MSTORE PUSH0 DUP6 DUP8 ADD DUP2 DUP2 MSTORE PUSH1 0x1 PUSH1 0x60 DUP9 ADD DUP2 DUP2 MSTORE TIMESTAMP PUSH1 0x80 DUP11 ADD SWAP1 DUP2 MSTORE DUP12 DUP6 MSTORE DUP5 DUP8 MSTORE SWAP4 DUP11 SWAP1 KECCAK256 SWAP9 MLOAD DUP10 SLOAD PUSH1 0x1 PUSH1 0x1 PUSH1 0xA0 SHL SUB NOT AND PUSH1 0x1 PUSH1 0x1 PUSH1 0xA0 SHL SUB SWAP1 SWAP2 AND OR DUP10 SSTORE SWAP4 MLOAD SWAP1 DUP9 ADD SSTORE MLOAD PUSH1 0x2 DUP8 ADD SSTORE SWAP1 MLOAD PUSH1 0x3 DUP7 ADD DUP1 SLOAD PUSH1 0xFF NOT AND SWAP2 ISZERO ISZERO SWAP2 SWAP1 SWAP2 OR SWAP1 SSTORE MLOAD PUSH1 0x4 SWAP1 SWAP5 ADD SWAP4 SWAP1 SWAP4 SSTORE SWAP3 MLOAD SWAP3 DUP4 MSTORE SWAP2 DUP4 SWAP2 PUSH32 0x5FB74283F874D0F894D0DE9C856A2A842137DC2C21C621E080065C7B797C0095 SWAP2 ADD PUSH1 0x40 MLOAD DUP1 SWAP2 SUB SWAP1 LOG3 POP JUMP JUMPDEST PUSH0 DUP2 DUP2 MSTORE PUSH1 0x20 DUP2 SWAP1 MSTORE PUSH1 0x40 SWAP1 KECCAK256 PUSH1 0x3 DUP2 ADD SLOAD PUSH1 0xFF AND PUSH2 0x839 JUMPI PUSH1 0x40 MLOAD PUSH3 0x461BCD PUSH1 0xE5 SHL DUP2 MSTORE PUSH1 0x4 ADD PUSH2 0x2E7 SWAP1 PUSH2 0xA6D JUMP JUMPDEST DUP1 SLOAD PUSH1 0x1 PUSH1 0x1 PUSH1 0xA0 SHL SUB AND CALLER EQ PUSH2 0x882 JUMPI PUSH1 0x40 MLOAD PUSH3 0x461BCD PUSH1 0xE5 SHL DUP2 MSTORE PUSH1 0x20 PUSH1 0x4 DUP3 ADD MSTORE PUSH1 0xD PUSH1 0x24 DUP3 ADD MSTORE PUSH13 0x2737BA103232B837B9B4BA37B9 PUSH1 0x99 SHL PUSH1 0x44 DUP3 ADD MSTORE PUSH1 0x64 ADD PUSH2 0x2E7 JUMP JUMPDEST PUSH0 DUP2 PUSH1 0x2 ADD SLOAD DUP3 PUSH1 0x1 ADD SLOAD PUSH2 0x897 SWAP2 SWAP1 PUSH2 0xAC3 JUMP JUMPDEST PUSH1 0x3 DUP4 ADD DUP1 SLOAD PUSH1 0xFF NOT AND SWAP1 SSTORE SWAP1 POP DUP1 ISZERO PUSH2 0x93C JUMPI DUP2 SLOAD PUSH1 0x40 MLOAD PUSH0 SWAP2 PUSH1 0x1 PUSH1 0x1 PUSH1 0xA0 SHL SUB AND SWAP1 DUP4 SWAP1 DUP4 DUP2 DUP2 DUP2 DUP6 DUP8 GAS CALL SWAP3 POP POP POP RETURNDATASIZE DUP1 PUSH0 DUP2 EQ PUSH2 0x8F4 JUMPI PUSH1 0x40 MLOAD SWAP2 POP PUSH1 0x1F NOT PUSH1 0x3F RETURNDATASIZE ADD AND DUP3 ADD PUSH1 0x40 MSTORE RETURNDATASIZE DUP3 MSTORE RETURNDATASIZE PUSH0 PUSH1 0x20 DUP5 ADD RETURNDATACOPY PUSH2 0x8F9 JUMP JUMPDEST PUSH1 0x60 SWAP2 POP JUMPDEST POP POP SWAP1 POP DUP1 PUSH2 0x93A JUMPI PUSH1 0x40 MLOAD PUSH3 0x461BCD PUSH1 0xE5 SHL DUP2 MSTORE PUSH1 0x20 PUSH1 0x4 DUP3 ADD MSTORE PUSH1 0xD PUSH1 0x24 DUP3 ADD MSTORE PUSH13 0x1499599D5B990819985A5B1959 PUSH1 0x9A SHL PUSH1 0x44 DUP3 ADD MSTORE PUSH1 0x64 ADD PUSH2 0x2E7 JUMP JUMPDEST POP JUMPDEST DUP2 SLOAD PUSH1 0x40 DUP1 MLOAD PUSH1 0x1 PUSH1 0x1 PUSH1 0xA0 SHL SUB SWAP1 SWAP3 AND DUP3 MSTORE PUSH1 0x20 DUP3 ADD DUP4 SWAP1 MSTORE DUP5 SWAP2 PUSH32 0xF3A7AB0CCBAD7F367B7892962016C155D1CE76A3E6FDD0420B5E749763ACBDA7 SWAP2 ADD PUSH1 0x40 MLOAD DUP1 SWAP2 SUB SWAP1 LOG2 DUP3 PUSH32 0x425461B244C16FF50ABAD00F390B37EC670910E5C1F71D0C3F4CFD35C0CADC9B DUP4 PUSH1 0x2 ADD SLOAD PUSH1 0x40 MLOAD PUSH2 0x9B9 SWAP2 DUP2 MSTORE PUSH1 0x20 ADD SWAP1 JUMP JUMPDEST PUSH1 0x40 MLOAD DUP1 SWAP2 SUB SWAP1 LOG2 POP POP POP JUMP JUMPDEST PUSH0 PUSH0 PUSH0 PUSH0 PUSH1 0x80 DUP6 DUP8 SUB SLT ISZERO PUSH2 0x9D9 JUMPI PUSH0 PUSH0 REVERT JUMPDEST DUP5 CALLDATALOAD SWAP4 POP PUSH1 0x20 DUP6 ADD CALLDATALOAD SWAP3 POP PUSH1 0x40 DUP6 ADD CALLDATALOAD PUSH1 0x1 PUSH1 0x1 PUSH1 0xA0 SHL SUB DUP2 AND DUP2 EQ PUSH2 0x9FD JUMPI PUSH0 PUSH0 REVERT JUMPDEST SWAP4 SWAP7 SWAP3 SWAP6 POP SWAP3 SWAP4 PUSH1 0x60 ADD CALLDATALOAD SWAP3 POP POP JUMP JUMPDEST PUSH0 PUSH1 0x20 DUP3 DUP5 SUB SLT ISZERO PUSH2 0xA1D JUMPI PUSH0 PUSH0 REVERT JUMPDEST POP CALLDATALOAD SWAP2 SWAP1 POP JUMP JUMPDEST PUSH0 PUSH0 PUSH0 PUSH1 0x60 DUP5 DUP7 SUB SLT ISZERO PUSH2 0xA36 JUMPI PUSH0 PUSH0 REVERT JUMPDEST POP POP DUP2 CALLDATALOAD SWAP4 PUSH1 0x20 DUP4 ADD CALLDATALOAD SWAP4 POP PUSH1 0x40 SWAP1 SWAP3 ADD CALLDATALOAD SWAP2 SWAP1 POP JUMP JUMPDEST PUSH0 PUSH0 PUSH1 0x40 DUP4 DUP6 SUB SLT ISZERO PUSH2 0xA5E JUMPI PUSH0 PUSH0 REVERT JUMPDEST POP POP DUP1 CALLDATALOAD SWAP3 PUSH1 0x20 SWAP1 SWAP2 ADD CALLDATALOAD SWAP2 POP JUMP JUMPDEST PUSH1 0x20 DUP1 DUP3 MSTORE PUSH1 0xF SWAP1 DUP3 ADD MSTORE PUSH15 0x5461736B206E6F7420616374697665 PUSH1 0x88 SHL PUSH1 0x40 DUP3 ADD MSTORE PUSH1 0x60 ADD SWAP1 JUMP JUMPDEST PUSH4 0x4E487B71 PUSH1 0xE0 SHL PUSH0 MSTORE PUSH1 0x11 PUSH1 0x4 MSTORE PUSH1 0x24 PUSH0 REVERT JUMPDEST DUP1 DUP3 ADD DUP1 DUP3 GT ISZERO PUSH2 0xABD JUMPI PUSH2 0xABD PUSH2 0xA96 JUMP JUMPDEST SWAP3 SWAP2 POP POP JUMP JUMPDEST DUP2 DUP2 SUB DUP2 DUP2 GT ISZERO PUSH2 0xABD JUMPI PUSH2 0xABD PUSH2 0xA96 JUMP INVALID LOG2 PUSH5 0x6970667358 0x22 SLT KECCAK256 0xAB PUSH21 0x95A6EB4A19AAF7F9808DB0D5B243550AE8B3B89991 SWAP8 EXP 0xD2 0xED 0xE4 LT DUP11 0xCC 0x27 PUSH5 0x736F6C6343 STOP ADDMOD SHR STOP CALLER "},"methodIdentifiers":{"approveWork(bytes32,bytes32,address,uint256)":"046ac4e1","createTask(bytes32)":"b293e81c","getProof(bytes32,bytes32)":"8a16a35f","getTask(bytes32)":"15a29035","proofs(bytes32,bytes32)":"7efeb8f0","refundRemaining(bytes32)":"c39bf976","submitProof(bytes32,bytes32,bytes32)":"4ece5685","tasks(bytes32)":"e579f500"}}}}}